{
	"contracts/3_Ballot.sol": {
		"Ballot": {
			"abi": [
				{
					"inputs": [],
					"name": "chairperson",
					"outputs": [
						{
							"internalType": "address",
							"name": "",
							"type": "address"
						}
					],
					"stateMutability": "view",
					"type": "function"
				},
				{
					"inputs": [
						{
							"internalType": "address",
							"name": "to",
							"type": "address"
						}
					],
					"name": "delegate",
					"outputs": [],
					"stateMutability": "nonpayable",
					"type": "function"
				},
				{
					"inputs": [
						{
							"internalType": "uint256",
							"name": "",
							"type": "uint256"
						}
					],
					"name": "proposals",
					"outputs": [
						{
							"internalType": "bytes32",
							"name": "name",
							"type": "bytes32"
						},
						{
							"internalType": "uint256",
							"name": "voteCount",
							"type": "uint256"
						}
					],
					"stateMutability": "view",
					"type": "function"
				},
				{
					"inputs": [
						{
							"internalType": "uint256",
							"name": "proposal",
							"type": "uint256"
						}
					],
					"name": "vote",
					"outputs": [],
					"stateMutability": "nonpayable",
					"type": "function"
				},
				{
					"inputs": [
						{
							"internalType": "address",
							"name": "",
							"type": "address"
						}
					],
					"name": "voters",
					"outputs": [
						{
							"internalType": "uint256",
							"name": "weight",
							"type": "uint256"
						},
						{
							"internalType": "bool",
							"name": "voted",
							"type": "bool"
						},
						{
							"internalType": "address",
							"name": "delegate",
							"type": "address"
						},
						{
							"internalType": "uint256",
							"name": "vote",
							"type": "uint256"
						}
					],
					"stateMutability": "view",
					"type": "function"
				},
				{
					"inputs": [],
					"name": "winnerName",
					"outputs": [
						{
							"internalType": "bytes32",
							"name": "winnerName_",
							"type": "bytes32"
						}
					],
					"stateMutability": "view",
					"type": "function"
				},
				{
					"inputs": [],
					"name": "winningProposal",
					"outputs": [
						{
							"internalType": "uint256",
							"name": "winningProposal_",
							"type": "uint256"
						}
					],
					"stateMutability": "view",
					"type": "function"
				}
			],
			"devdoc": {
				"details": "Implements voting process along with vote delegation",
				"kind": "dev",
				"methods": {
					"delegate(address)": {
						"details": "Delegate your vote to the voter 'to'.",
						"params": {
							"to": "address to which vote is delegated"
						}
					},
					"vote(uint256)": {
						"details": "Give your vote (including votes delegated to you) to proposal 'proposals[proposal].name'.",
						"params": {
							"proposal": "index of proposal in the proposals array"
						}
					},
					"winnerName()": {
						"details": "Calls winningProposal() function to get the index of the winner contained in the proposals array and then",
						"returns": {
							"winnerName_": "the name of the winner"
						}
					},
					"winningProposal()": {
						"details": "Computes the winning proposal taking all previous votes into account.",
						"returns": {
							"winningProposal_": "index of winning proposal in the proposals array"
						}
					}
				},
				"title": "Ballot",
				"version": 1
			},
			"evm": {
				"assembly": "    /* \"contracts/3_Ballot.sol\":156:3494  contract Ballot {... */\n  mstore(0x40, 0x80)\n  callvalue\n  dup1\n  iszero\n  tag_1\n  jumpi\n  0x00\n  dup1\n  revert\ntag_1:\n  pop\n  dataSize(sub_0)\n  dup1\n  dataOffset(sub_0)\n  0x00\n  codecopy\n  0x00\n  return\nstop\n\nsub_0: assembly {\n        /* \"contracts/3_Ballot.sol\":156:3494  contract Ballot {... */\n      mstore(0x40, 0x80)\n      callvalue\n      dup1\n      iszero\n      tag_1\n      jumpi\n      0x00\n      dup1\n      revert\n    tag_1:\n      pop\n      jumpi(tag_2, lt(calldatasize, 0x04))\n      shr(0xe0, calldataload(0x00))\n      dup1\n      0x5c19a95c\n      gt\n      tag_10\n      jumpi\n      dup1\n      0x5c19a95c\n      eq\n      tag_6\n      jumpi\n      dup1\n      0x609ff1bd\n      eq\n      tag_7\n      jumpi\n      dup1\n      0xa3ec138d\n      eq\n      tag_8\n      jumpi\n      dup1\n      0xe2ba53f0\n      eq\n      tag_9\n      jumpi\n      jump(tag_2)\n    tag_10:\n      dup1\n      0x0121b93f\n      eq\n      tag_3\n      jumpi\n      dup1\n      0x013cf08b\n      eq\n      tag_4\n      jumpi\n      dup1\n      0x2e4176cf\n      eq\n      tag_5\n      jumpi\n    tag_2:\n      0x00\n      dup1\n      revert\n        /* \"contracts/3_Ballot.sol\":2170:2631  function vote(uint256 proposal) public {... */\n    tag_3:\n      tag_11\n      0x04\n      dup1\n      calldatasize\n      sub\n      dup2\n      add\n      swap1\n      tag_12\n      swap2\n      swap1\n      tag_13\n      jump\t// in\n    tag_12:\n      tag_14\n      jump\t// in\n    tag_11:\n      stop\n        /* \"contracts/3_Ballot.sol\":792:819  Proposal[] public proposals */\n    tag_4:\n      tag_15\n      0x04\n      dup1\n      calldatasize\n      sub\n      dup2\n      add\n      swap1\n      tag_16\n      swap2\n      swap1\n      tag_13\n      jump\t// in\n    tag_16:\n      tag_17\n      jump\t// in\n    tag_15:\n      mload(0x40)\n      tag_18\n      swap3\n      swap2\n      swap1\n      tag_19\n      jump\t// in\n    tag_18:\n      mload(0x40)\n      dup1\n      swap2\n      sub\n      swap1\n      return\n        /* \"contracts/3_Ballot.sol\":713:739  address public chairperson */\n    tag_5:\n      tag_20\n      tag_21\n      jump\t// in\n    tag_20:\n      mload(0x40)\n      tag_22\n      swap2\n      swap1\n      tag_23\n      jump\t// in\n    tag_22:\n      mload(0x40)\n      dup1\n      swap2\n      sub\n      swap1\n      return\n        /* \"contracts/3_Ballot.sol\":1075:1982  function delegate(address to) public {... */\n    tag_6:\n      tag_24\n      0x04\n      dup1\n      calldatasize\n      sub\n      dup2\n      add\n      swap1\n      tag_25\n      swap2\n      swap1\n      tag_26\n      jump\t// in\n    tag_25:\n      tag_27\n      jump\t// in\n    tag_24:\n      stop\n        /* \"contracts/3_Ballot.sol\":2816:3174  function winningProposal() public view returns (uint256 winningProposal_) {... */\n    tag_7:\n      tag_28\n      tag_29\n      jump\t// in\n    tag_28:\n      mload(0x40)\n      tag_30\n      swap2\n      swap1\n      tag_31\n      jump\t// in\n    tag_30:\n      mload(0x40)\n      dup1\n      swap2\n      sub\n      swap1\n      return\n        /* \"contracts/3_Ballot.sol\":746:785  mapping(address => Voter) public voters */\n    tag_8:\n      tag_32\n      0x04\n      dup1\n      calldatasize\n      sub\n      dup2\n      add\n      swap1\n      tag_33\n      swap2\n      swap1\n      tag_26\n      jump\t// in\n    tag_33:\n      tag_34\n      jump\t// in\n    tag_32:\n      mload(0x40)\n      tag_35\n      swap5\n      swap4\n      swap3\n      swap2\n      swap1\n      tag_36\n      jump\t// in\n    tag_35:\n      mload(0x40)\n      dup1\n      swap2\n      sub\n      swap1\n      return\n        /* \"contracts/3_Ballot.sol\":3364:3492  function winnerName() public view returns (bytes32 winnerName_) {... */\n    tag_9:\n      tag_37\n      tag_38\n      jump\t// in\n    tag_37:\n      mload(0x40)\n      tag_39\n      swap2\n      swap1\n      tag_40\n      jump\t// in\n    tag_39:\n      mload(0x40)\n      dup1\n      swap2\n      sub\n      swap1\n      return\n        /* \"contracts/3_Ballot.sol\":2170:2631  function vote(uint256 proposal) public {... */\n    tag_14:\n        /* \"contracts/3_Ballot.sol\":2219:2239  Voter storage sender */\n      0x00\n        /* \"contracts/3_Ballot.sol\":2242:2248  voters */\n      0x01\n        /* \"contracts/3_Ballot.sol\":2242:2260  voters[msg.sender] */\n      0x00\n        /* \"contracts/3_Ballot.sol\":2249:2259  msg.sender */\n      caller\n        /* \"contracts/3_Ballot.sol\":2242:2260  voters[msg.sender] */\n      0xffffffffffffffffffffffffffffffffffffffff\n      and\n      0xffffffffffffffffffffffffffffffffffffffff\n      and\n      dup2\n      mstore\n      0x20\n      add\n      swap1\n      dup2\n      mstore\n      0x20\n      add\n      0x00\n      keccak256\n        /* \"contracts/3_Ballot.sol\":2219:2260  Voter storage sender = voters[msg.sender] */\n      swap1\n      pop\n        /* \"contracts/3_Ballot.sol\":2295:2296  0 */\n      0x00\n        /* \"contracts/3_Ballot.sol\":2278:2284  sender */\n      dup2\n        /* \"contracts/3_Ballot.sol\":2278:2291  sender.weight */\n      0x00\n      add\n      sload\n        /* \"contracts/3_Ballot.sol\":2278:2296  sender.weight != 0 */\n      eq\n      iszero\n        /* \"contracts/3_Ballot.sol\":2270:2321  require(sender.weight != 0, \"Has no right to vote\") */\n      tag_42\n      jumpi\n      mload(0x40)\n      0x08c379a000000000000000000000000000000000000000000000000000000000\n      dup2\n      mstore\n      0x04\n      add\n      tag_43\n      swap1\n      tag_44\n      jump\t// in\n    tag_43:\n      mload(0x40)\n      dup1\n      swap2\n      sub\n      swap1\n      revert\n    tag_42:\n        /* \"contracts/3_Ballot.sol\":2340:2346  sender */\n      dup1\n        /* \"contracts/3_Ballot.sol\":2340:2352  sender.voted */\n      0x01\n      add\n      0x00\n      swap1\n      sload\n      swap1\n      0x0100\n      exp\n      swap1\n      div\n      0xff\n      and\n        /* \"contracts/3_Ballot.sol\":2339:2352  !sender.voted */\n      iszero\n        /* \"contracts/3_Ballot.sol\":2331:2371  require(!sender.voted, \"Already voted.\") */\n      tag_45\n      jumpi\n      mload(0x40)\n      0x08c379a000000000000000000000000000000000000000000000000000000000\n      dup2\n      mstore\n      0x04\n      add\n      tag_46\n      swap1\n      tag_47\n      jump\t// in\n    tag_46:\n      mload(0x40)\n      dup1\n      swap2\n      sub\n      swap1\n      revert\n    tag_45:\n        /* \"contracts/3_Ballot.sol\":2396:2400  true */\n      0x01\n        /* \"contracts/3_Ballot.sol\":2381:2387  sender */\n      dup2\n        /* \"contracts/3_Ballot.sol\":2381:2393  sender.voted */\n      0x01\n      add\n      0x00\n        /* \"contracts/3_Ballot.sol\":2381:2400  sender.voted = true */\n      0x0100\n      exp\n      dup2\n      sload\n      dup2\n      0xff\n      mul\n      not\n      and\n      swap1\n      dup4\n      iszero\n      iszero\n      mul\n      or\n      swap1\n      sstore\n      pop\n        /* \"contracts/3_Ballot.sol\":2424:2432  proposal */\n      dup2\n        /* \"contracts/3_Ballot.sol\":2410:2416  sender */\n      dup2\n        /* \"contracts/3_Ballot.sol\":2410:2421  sender.vote */\n      0x02\n      add\n        /* \"contracts/3_Ballot.sol\":2410:2432  sender.vote = proposal */\n      dup2\n      swap1\n      sstore\n      pop\n        /* \"contracts/3_Ballot.sol\":2611:2617  sender */\n      dup1\n        /* \"contracts/3_Ballot.sol\":2611:2624  sender.weight */\n      0x00\n      add\n      sload\n        /* \"contracts/3_Ballot.sol\":2578:2587  proposals */\n      0x02\n        /* \"contracts/3_Ballot.sol\":2588:2596  proposal */\n      dup4\n        /* \"contracts/3_Ballot.sol\":2578:2597  proposals[proposal] */\n      dup2\n      sload\n      dup2\n      lt\n      tag_48\n      jumpi\n      tag_49\n      tag_50\n      jump\t// in\n    tag_49:\n    tag_48:\n      swap1\n      0x00\n      mstore\n      keccak256(0x00, 0x20)\n      swap1\n      0x02\n      mul\n      add\n        /* \"contracts/3_Ballot.sol\":2578:2607  proposals[proposal].voteCount */\n      0x01\n      add\n      0x00\n        /* \"contracts/3_Ballot.sol\":2578:2624  proposals[proposal].voteCount += sender.weight */\n      dup3\n      dup3\n      sload\n      tag_52\n      swap2\n      swap1\n      tag_53\n      jump\t// in\n    tag_52:\n      swap3\n      pop\n      pop\n      dup2\n      swap1\n      sstore\n      pop\n        /* \"contracts/3_Ballot.sol\":2209:2631  {... */\n      pop\n        /* \"contracts/3_Ballot.sol\":2170:2631  function vote(uint256 proposal) public {... */\n      pop\n      jump\t// out\n        /* \"contracts/3_Ballot.sol\":792:819  Proposal[] public proposals */\n    tag_17:\n      0x02\n      dup2\n      dup2\n      sload\n      dup2\n      lt\n      tag_54\n      jumpi\n      0x00\n      dup1\n      revert\n    tag_54:\n      swap1\n      0x00\n      mstore\n      keccak256(0x00, 0x20)\n      swap1\n      0x02\n      mul\n      add\n      0x00\n      swap2\n      pop\n      swap1\n      pop\n      dup1\n      0x00\n      add\n      sload\n      swap1\n      dup1\n      0x01\n      add\n      sload\n      swap1\n      pop\n      dup3\n      jump\t// out\n        /* \"contracts/3_Ballot.sol\":713:739  address public chairperson */\n    tag_21:\n      0x00\n      dup1\n      sload\n      swap1\n      0x0100\n      exp\n      swap1\n      div\n      0xffffffffffffffffffffffffffffffffffffffff\n      and\n      dup2\n      jump\t// out\n        /* \"contracts/3_Ballot.sol\":1075:1982  function delegate(address to) public {... */\n    tag_27:\n        /* \"contracts/3_Ballot.sol\":1122:1142  Voter storage sender */\n      0x00\n        /* \"contracts/3_Ballot.sol\":1145:1151  voters */\n      0x01\n        /* \"contracts/3_Ballot.sol\":1145:1163  voters[msg.sender] */\n      0x00\n        /* \"contracts/3_Ballot.sol\":1152:1162  msg.sender */\n      caller\n        /* \"contracts/3_Ballot.sol\":1145:1163  voters[msg.sender] */\n      0xffffffffffffffffffffffffffffffffffffffff\n      and\n      0xffffffffffffffffffffffffffffffffffffffff\n      and\n      dup2\n      mstore\n      0x20\n      add\n      swap1\n      dup2\n      mstore\n      0x20\n      add\n      0x00\n      keccak256\n        /* \"contracts/3_Ballot.sol\":1122:1163  Voter storage sender = voters[msg.sender] */\n      swap1\n      pop\n        /* \"contracts/3_Ballot.sol\":1182:1188  sender */\n      dup1\n        /* \"contracts/3_Ballot.sol\":1182:1194  sender.voted */\n      0x01\n      add\n      0x00\n      swap1\n      sload\n      swap1\n      0x0100\n      exp\n      swap1\n      div\n      0xff\n      and\n        /* \"contracts/3_Ballot.sol\":1181:1194  !sender.voted */\n      iszero\n        /* \"contracts/3_Ballot.sol\":1173:1217  require(!sender.voted, \"You already voted.\") */\n      tag_57\n      jumpi\n      mload(0x40)\n      0x08c379a000000000000000000000000000000000000000000000000000000000\n      dup2\n      mstore\n      0x04\n      add\n      tag_58\n      swap1\n      tag_59\n      jump\t// in\n    tag_58:\n      mload(0x40)\n      dup1\n      swap2\n      sub\n      swap1\n      revert\n    tag_57:\n        /* \"contracts/3_Ballot.sol\":1241:1251  msg.sender */\n      caller\n        /* \"contracts/3_Ballot.sol\":1235:1251  to != msg.sender */\n      0xffffffffffffffffffffffffffffffffffffffff\n      and\n        /* \"contracts/3_Ballot.sol\":1235:1237  to */\n      dup3\n        /* \"contracts/3_Ballot.sol\":1235:1251  to != msg.sender */\n      0xffffffffffffffffffffffffffffffffffffffff\n      and\n      eq\n      iszero\n        /* \"contracts/3_Ballot.sol\":1227:1286  require(to != msg.sender, \"Self-delegation is disallowed.\") */\n      tag_60\n      jumpi\n      mload(0x40)\n      0x08c379a000000000000000000000000000000000000000000000000000000000\n      dup2\n      mstore\n      0x04\n      add\n      tag_61\n      swap1\n      tag_62\n      jump\t// in\n    tag_61:\n      mload(0x40)\n      dup1\n      swap2\n      sub\n      swap1\n      revert\n    tag_60:\n        /* \"contracts/3_Ballot.sol\":1297:1520  while (voters[to].delegate != address(0)) {... */\n    tag_63:\n        /* \"contracts/3_Ballot.sol\":1335:1336  0 */\n      0x00\n        /* \"contracts/3_Ballot.sol\":1304:1337  voters[to].delegate != address(0) */\n      0xffffffffffffffffffffffffffffffffffffffff\n      and\n        /* \"contracts/3_Ballot.sol\":1304:1310  voters */\n      0x01\n        /* \"contracts/3_Ballot.sol\":1304:1314  voters[to] */\n      0x00\n        /* \"contracts/3_Ballot.sol\":1311:1313  to */\n      dup5\n        /* \"contracts/3_Ballot.sol\":1304:1314  voters[to] */\n      0xffffffffffffffffffffffffffffffffffffffff\n      and\n      0xffffffffffffffffffffffffffffffffffffffff\n      and\n      dup2\n      mstore\n      0x20\n      add\n      swap1\n      dup2\n      mstore\n      0x20\n      add\n      0x00\n      keccak256\n        /* \"contracts/3_Ballot.sol\":1304:1323  voters[to].delegate */\n      0x01\n      add\n      0x01\n      swap1\n      sload\n      swap1\n      0x0100\n      exp\n      swap1\n      div\n      0xffffffffffffffffffffffffffffffffffffffff\n      and\n        /* \"contracts/3_Ballot.sol\":1304:1337  voters[to].delegate != address(0) */\n      0xffffffffffffffffffffffffffffffffffffffff\n      and\n      eq\n        /* \"contracts/3_Ballot.sol\":1297:1520  while (voters[to].delegate != address(0)) {... */\n      tag_64\n      jumpi\n        /* \"contracts/3_Ballot.sol\":1358:1364  voters */\n      0x01\n        /* \"contracts/3_Ballot.sol\":1358:1368  voters[to] */\n      0x00\n        /* \"contracts/3_Ballot.sol\":1365:1367  to */\n      dup4\n        /* \"contracts/3_Ballot.sol\":1358:1368  voters[to] */\n      0xffffffffffffffffffffffffffffffffffffffff\n      and\n      0xffffffffffffffffffffffffffffffffffffffff\n      and\n      dup2\n      mstore\n      0x20\n      add\n      swap1\n      dup2\n      mstore\n      0x20\n      add\n      0x00\n      keccak256\n        /* \"contracts/3_Ballot.sol\":1358:1377  voters[to].delegate */\n      0x01\n      add\n      0x01\n      swap1\n      sload\n      swap1\n      0x0100\n      exp\n      swap1\n      div\n      0xffffffffffffffffffffffffffffffffffffffff\n      and\n        /* \"contracts/3_Ballot.sol\":1353:1377  to = voters[to].delegate */\n      swap2\n      pop\n        /* \"contracts/3_Ballot.sol\":1469:1479  msg.sender */\n      caller\n        /* \"contracts/3_Ballot.sol\":1463:1479  to != msg.sender */\n      0xffffffffffffffffffffffffffffffffffffffff\n      and\n        /* \"contracts/3_Ballot.sol\":1463:1465  to */\n      dup3\n        /* \"contracts/3_Ballot.sol\":1463:1479  to != msg.sender */\n      0xffffffffffffffffffffffffffffffffffffffff\n      and\n      eq\n      iszero\n        /* \"contracts/3_Ballot.sol\":1455:1509  require(to != msg.sender, \"Found loop in delegation.\") */\n      tag_65\n      jumpi\n      mload(0x40)\n      0x08c379a000000000000000000000000000000000000000000000000000000000\n      dup2\n      mstore\n      0x04\n      add\n      tag_66\n      swap1\n      tag_67\n      jump\t// in\n    tag_66:\n      mload(0x40)\n      dup1\n      swap2\n      sub\n      swap1\n      revert\n    tag_65:\n        /* \"contracts/3_Ballot.sol\":1297:1520  while (voters[to].delegate != address(0)) {... */\n      jump(tag_63)\n    tag_64:\n        /* \"contracts/3_Ballot.sol\":1544:1548  true */\n      0x01\n        /* \"contracts/3_Ballot.sol\":1529:1535  sender */\n      dup2\n        /* \"contracts/3_Ballot.sol\":1529:1541  sender.voted */\n      0x01\n      add\n      0x00\n        /* \"contracts/3_Ballot.sol\":1529:1548  sender.voted = true */\n      0x0100\n      exp\n      dup2\n      sload\n      dup2\n      0xff\n      mul\n      not\n      and\n      swap1\n      dup4\n      iszero\n      iszero\n      mul\n      or\n      swap1\n      sstore\n      pop\n        /* \"contracts/3_Ballot.sol\":1576:1578  to */\n      dup2\n        /* \"contracts/3_Ballot.sol\":1558:1564  sender */\n      dup2\n        /* \"contracts/3_Ballot.sol\":1558:1573  sender.delegate */\n      0x01\n      add\n      0x01\n        /* \"contracts/3_Ballot.sol\":1558:1578  sender.delegate = to */\n      0x0100\n      exp\n      dup2\n      sload\n      dup2\n      0xffffffffffffffffffffffffffffffffffffffff\n      mul\n      not\n      and\n      swap1\n      dup4\n      0xffffffffffffffffffffffffffffffffffffffff\n      and\n      mul\n      or\n      swap1\n      sstore\n      pop\n        /* \"contracts/3_Ballot.sol\":1588:1611  Voter storage delegate_ */\n      0x00\n        /* \"contracts/3_Ballot.sol\":1614:1620  voters */\n      0x01\n        /* \"contracts/3_Ballot.sol\":1614:1624  voters[to] */\n      0x00\n        /* \"contracts/3_Ballot.sol\":1621:1623  to */\n      dup5\n        /* \"contracts/3_Ballot.sol\":1614:1624  voters[to] */\n      0xffffffffffffffffffffffffffffffffffffffff\n      and\n      0xffffffffffffffffffffffffffffffffffffffff\n      and\n      dup2\n      mstore\n      0x20\n      add\n      swap1\n      dup2\n      mstore\n      0x20\n      add\n      0x00\n      keccak256\n        /* \"contracts/3_Ballot.sol\":1588:1624  Voter storage delegate_ = voters[to] */\n      swap1\n      pop\n        /* \"contracts/3_Ballot.sol\":1638:1647  delegate_ */\n      dup1\n        /* \"contracts/3_Ballot.sol\":1638:1653  delegate_.voted */\n      0x01\n      add\n      0x00\n      swap1\n      sload\n      swap1\n      0x0100\n      exp\n      swap1\n      div\n      0xff\n      and\n        /* \"contracts/3_Ballot.sol\":1634:1976  if (delegate_.voted) {... */\n      iszero\n      tag_68\n      jumpi\n        /* \"contracts/3_Ballot.sol\":1805:1811  sender */\n      dup2\n        /* \"contracts/3_Ballot.sol\":1805:1818  sender.weight */\n      0x00\n      add\n      sload\n        /* \"contracts/3_Ballot.sol\":1766:1775  proposals */\n      0x02\n        /* \"contracts/3_Ballot.sol\":1776:1785  delegate_ */\n      dup3\n        /* \"contracts/3_Ballot.sol\":1776:1790  delegate_.vote */\n      0x02\n      add\n      sload\n        /* \"contracts/3_Ballot.sol\":1766:1791  proposals[delegate_.vote] */\n      dup2\n      sload\n      dup2\n      lt\n      tag_69\n      jumpi\n      tag_70\n      tag_50\n      jump\t// in\n    tag_70:\n    tag_69:\n      swap1\n      0x00\n      mstore\n      keccak256(0x00, 0x20)\n      swap1\n      0x02\n      mul\n      add\n        /* \"contracts/3_Ballot.sol\":1766:1801  proposals[delegate_.vote].voteCount */\n      0x01\n      add\n      0x00\n        /* \"contracts/3_Ballot.sol\":1766:1818  proposals[delegate_.vote].voteCount += sender.weight */\n      dup3\n      dup3\n      sload\n      tag_72\n      swap2\n      swap1\n      tag_53\n      jump\t// in\n    tag_72:\n      swap3\n      pop\n      pop\n      dup2\n      swap1\n      sstore\n      pop\n        /* \"contracts/3_Ballot.sol\":1634:1976  if (delegate_.voted) {... */\n      jump(tag_73)\n    tag_68:\n        /* \"contracts/3_Ballot.sol\":1952:1958  sender */\n      dup2\n        /* \"contracts/3_Ballot.sol\":1952:1965  sender.weight */\n      0x00\n      add\n      sload\n        /* \"contracts/3_Ballot.sol\":1932:1941  delegate_ */\n      dup2\n        /* \"contracts/3_Ballot.sol\":1932:1948  delegate_.weight */\n      0x00\n      add\n      0x00\n        /* \"contracts/3_Ballot.sol\":1932:1965  delegate_.weight += sender.weight */\n      dup3\n      dup3\n      sload\n      tag_74\n      swap2\n      swap1\n      tag_53\n      jump\t// in\n    tag_74:\n      swap3\n      pop\n      pop\n      dup2\n      swap1\n      sstore\n      pop\n        /* \"contracts/3_Ballot.sol\":1634:1976  if (delegate_.voted) {... */\n    tag_73:\n        /* \"contracts/3_Ballot.sol\":1112:1982  {... */\n      pop\n      pop\n        /* \"contracts/3_Ballot.sol\":1075:1982  function delegate(address to) public {... */\n      pop\n      jump\t// out\n        /* \"contracts/3_Ballot.sol\":2816:3174  function winningProposal() public view returns (uint256 winningProposal_) {... */\n    tag_29:\n        /* \"contracts/3_Ballot.sol\":2864:2888  uint256 winningProposal_ */\n      0x00\n        /* \"contracts/3_Ballot.sol\":2900:2924  uint256 winningVoteCount */\n      dup1\n        /* \"contracts/3_Ballot.sol\":2927:2928  0 */\n      0x00\n        /* \"contracts/3_Ballot.sol\":2900:2928  uint256 winningVoteCount = 0 */\n      swap1\n      pop\n        /* \"contracts/3_Ballot.sol\":2943:2952  uint256 p */\n      0x00\n        /* \"contracts/3_Ballot.sol\":2938:3168  for (uint256 p = 0; p < proposals.length; p++) {... */\n    tag_76:\n        /* \"contracts/3_Ballot.sol\":2962:2971  proposals */\n      0x02\n        /* \"contracts/3_Ballot.sol\":2962:2978  proposals.length */\n      dup1\n      sload\n      swap1\n      pop\n        /* \"contracts/3_Ballot.sol\":2958:2959  p */\n      dup2\n        /* \"contracts/3_Ballot.sol\":2958:2978  p < proposals.length */\n      lt\n        /* \"contracts/3_Ballot.sol\":2938:3168  for (uint256 p = 0; p < proposals.length; p++) {... */\n      iszero\n      tag_77\n      jumpi\n        /* \"contracts/3_Ballot.sol\":3028:3044  winningVoteCount */\n      dup2\n        /* \"contracts/3_Ballot.sol\":3003:3012  proposals */\n      0x02\n        /* \"contracts/3_Ballot.sol\":3013:3014  p */\n      dup3\n        /* \"contracts/3_Ballot.sol\":3003:3015  proposals[p] */\n      dup2\n      sload\n      dup2\n      lt\n      tag_79\n      jumpi\n      tag_80\n      tag_50\n      jump\t// in\n    tag_80:\n    tag_79:\n      swap1\n      0x00\n      mstore\n      keccak256(0x00, 0x20)\n      swap1\n      0x02\n      mul\n      add\n        /* \"contracts/3_Ballot.sol\":3003:3025  proposals[p].voteCount */\n      0x01\n      add\n      sload\n        /* \"contracts/3_Ballot.sol\":3003:3044  proposals[p].voteCount > winningVoteCount */\n      gt\n        /* \"contracts/3_Ballot.sol\":2999:3158  if (proposals[p].voteCount > winningVoteCount) {... */\n      iszero\n      tag_82\n      jumpi\n        /* \"contracts/3_Ballot.sol\":3083:3092  proposals */\n      0x02\n        /* \"contracts/3_Ballot.sol\":3093:3094  p */\n      dup2\n        /* \"contracts/3_Ballot.sol\":3083:3095  proposals[p] */\n      dup2\n      sload\n      dup2\n      lt\n      tag_83\n      jumpi\n      tag_84\n      tag_50\n      jump\t// in\n    tag_84:\n    tag_83:\n      swap1\n      0x00\n      mstore\n      keccak256(0x00, 0x20)\n      swap1\n      0x02\n      mul\n      add\n        /* \"contracts/3_Ballot.sol\":3083:3105  proposals[p].voteCount */\n      0x01\n      add\n      sload\n        /* \"contracts/3_Ballot.sol\":3064:3105  winningVoteCount = proposals[p].voteCount */\n      swap2\n      pop\n        /* \"contracts/3_Ballot.sol\":3142:3143  p */\n      dup1\n        /* \"contracts/3_Ballot.sol\":3123:3143  winningProposal_ = p */\n      swap3\n      pop\n        /* \"contracts/3_Ballot.sol\":2999:3158  if (proposals[p].voteCount > winningVoteCount) {... */\n    tag_82:\n        /* \"contracts/3_Ballot.sol\":2980:2983  p++ */\n      dup1\n      dup1\n      tag_86\n      swap1\n      tag_87\n      jump\t// in\n    tag_86:\n      swap2\n      pop\n      pop\n        /* \"contracts/3_Ballot.sol\":2938:3168  for (uint256 p = 0; p < proposals.length; p++) {... */\n      jump(tag_76)\n    tag_77:\n      pop\n        /* \"contracts/3_Ballot.sol\":2890:3174  {... */\n      pop\n        /* \"contracts/3_Ballot.sol\":2816:3174  function winningProposal() public view returns (uint256 winningProposal_) {... */\n      swap1\n      jump\t// out\n        /* \"contracts/3_Ballot.sol\":746:785  mapping(address => Voter) public voters */\n    tag_34:\n      mstore(0x20, 0x01)\n      dup1\n      0x00\n      mstore\n      keccak256(0x00, 0x40)\n      0x00\n      swap2\n      pop\n      swap1\n      pop\n      dup1\n      0x00\n      add\n      sload\n      swap1\n      dup1\n      0x01\n      add\n      0x00\n      swap1\n      sload\n      swap1\n      0x0100\n      exp\n      swap1\n      div\n      0xff\n      and\n      swap1\n      dup1\n      0x01\n      add\n      0x01\n      swap1\n      sload\n      swap1\n      0x0100\n      exp\n      swap1\n      div\n      0xffffffffffffffffffffffffffffffffffffffff\n      and\n      swap1\n      dup1\n      0x02\n      add\n      sload\n      swap1\n      pop\n      dup5\n      jump\t// out\n        /* \"contracts/3_Ballot.sol\":3364:3492  function winnerName() public view returns (bytes32 winnerName_) {... */\n    tag_38:\n        /* \"contracts/3_Ballot.sol\":3407:3426  bytes32 winnerName_ */\n      0x00\n        /* \"contracts/3_Ballot.sol\":3452:3461  proposals */\n      0x02\n        /* \"contracts/3_Ballot.sol\":3462:3479  winningProposal() */\n      tag_89\n        /* \"contracts/3_Ballot.sol\":3462:3477  winningProposal */\n      tag_29\n        /* \"contracts/3_Ballot.sol\":3462:3479  winningProposal() */\n      jump\t// in\n    tag_89:\n        /* \"contracts/3_Ballot.sol\":3452:3480  proposals[winningProposal()] */\n      dup2\n      sload\n      dup2\n      lt\n      tag_90\n      jumpi\n      tag_91\n      tag_50\n      jump\t// in\n    tag_91:\n    tag_90:\n      swap1\n      0x00\n      mstore\n      keccak256(0x00, 0x20)\n      swap1\n      0x02\n      mul\n      add\n        /* \"contracts/3_Ballot.sol\":3452:3485  proposals[winningProposal()].name */\n      0x00\n      add\n      sload\n        /* \"contracts/3_Ballot.sol\":3438:3485  winnerName_ = proposals[winningProposal()].name */\n      swap1\n      pop\n        /* \"contracts/3_Ballot.sol\":3364:3492  function winnerName() public view returns (bytes32 winnerName_) {... */\n      swap1\n      jump\t// out\n        /* \"#utility.yul\":7:146   */\n    tag_94:\n        /* \"#utility.yul\":53:58   */\n      0x00\n        /* \"#utility.yul\":91:97   */\n      dup2\n        /* \"#utility.yul\":78:98   */\n      calldataload\n        /* \"#utility.yul\":69:98   */\n      swap1\n      pop\n        /* \"#utility.yul\":107:140   */\n      tag_96\n        /* \"#utility.yul\":134:139   */\n      dup2\n        /* \"#utility.yul\":107:140   */\n      tag_97\n      jump\t// in\n    tag_96:\n        /* \"#utility.yul\":7:146   */\n      swap3\n      swap2\n      pop\n      pop\n      jump\t// out\n        /* \"#utility.yul\":152:291   */\n    tag_98:\n        /* \"#utility.yul\":198:203   */\n      0x00\n        /* \"#utility.yul\":236:242   */\n      dup2\n        /* \"#utility.yul\":223:243   */\n      calldataload\n        /* \"#utility.yul\":214:243   */\n      swap1\n      pop\n        /* \"#utility.yul\":252:285   */\n      tag_100\n        /* \"#utility.yul\":279:284   */\n      dup2\n        /* \"#utility.yul\":252:285   */\n      tag_101\n      jump\t// in\n    tag_100:\n        /* \"#utility.yul\":152:291   */\n      swap3\n      swap2\n      pop\n      pop\n      jump\t// out\n        /* \"#utility.yul\":297:626   */\n    tag_26:\n        /* \"#utility.yul\":356:362   */\n      0x00\n        /* \"#utility.yul\":405:407   */\n      0x20\n        /* \"#utility.yul\":393:402   */\n      dup3\n        /* \"#utility.yul\":384:391   */\n      dup5\n        /* \"#utility.yul\":380:403   */\n      sub\n        /* \"#utility.yul\":376:408   */\n      slt\n        /* \"#utility.yul\":373:492   */\n      iszero\n      tag_103\n      jumpi\n        /* \"#utility.yul\":411:490   */\n      tag_104\n      tag_105\n      jump\t// in\n    tag_104:\n        /* \"#utility.yul\":373:492   */\n    tag_103:\n        /* \"#utility.yul\":531:532   */\n      0x00\n        /* \"#utility.yul\":556:609   */\n      tag_106\n        /* \"#utility.yul\":601:608   */\n      dup5\n        /* \"#utility.yul\":592:598   */\n      dup3\n        /* \"#utility.yul\":581:590   */\n      dup6\n        /* \"#utility.yul\":577:599   */\n      add\n        /* \"#utility.yul\":556:609   */\n      tag_94\n      jump\t// in\n    tag_106:\n        /* \"#utility.yul\":546:609   */\n      swap2\n      pop\n        /* \"#utility.yul\":502:619   */\n      pop\n        /* \"#utility.yul\":297:626   */\n      swap3\n      swap2\n      pop\n      pop\n      jump\t// out\n        /* \"#utility.yul\":632:961   */\n    tag_13:\n        /* \"#utility.yul\":691:697   */\n      0x00\n        /* \"#utility.yul\":740:742   */\n      0x20\n        /* \"#utility.yul\":728:737   */\n      dup3\n        /* \"#utility.yul\":719:726   */\n      dup5\n        /* \"#utility.yul\":715:738   */\n      sub\n        /* \"#utility.yul\":711:743   */\n      slt\n        /* \"#utility.yul\":708:827   */\n      iszero\n      tag_108\n      jumpi\n        /* \"#utility.yul\":746:825   */\n      tag_109\n      tag_105\n      jump\t// in\n    tag_109:\n        /* \"#utility.yul\":708:827   */\n    tag_108:\n        /* \"#utility.yul\":866:867   */\n      0x00\n        /* \"#utility.yul\":891:944   */\n      tag_110\n        /* \"#utility.yul\":936:943   */\n      dup5\n        /* \"#utility.yul\":927:933   */\n      dup3\n        /* \"#utility.yul\":916:925   */\n      dup6\n        /* \"#utility.yul\":912:934   */\n      add\n        /* \"#utility.yul\":891:944   */\n      tag_98\n      jump\t// in\n    tag_110:\n        /* \"#utility.yul\":881:944   */\n      swap2\n      pop\n        /* \"#utility.yul\":837:954   */\n      pop\n        /* \"#utility.yul\":632:961   */\n      swap3\n      swap2\n      pop\n      pop\n      jump\t// out\n        /* \"#utility.yul\":967:1085   */\n    tag_111:\n        /* \"#utility.yul\":1054:1078   */\n      tag_113\n        /* \"#utility.yul\":1072:1077   */\n      dup2\n        /* \"#utility.yul\":1054:1078   */\n      tag_114\n      jump\t// in\n    tag_113:\n        /* \"#utility.yul\":1049:1052   */\n      dup3\n        /* \"#utility.yul\":1042:1079   */\n      mstore\n        /* \"#utility.yul\":967:1085   */\n      pop\n      pop\n      jump\t// out\n        /* \"#utility.yul\":1091:1200   */\n    tag_115:\n        /* \"#utility.yul\":1172:1193   */\n      tag_117\n        /* \"#utility.yul\":1187:1192   */\n      dup2\n        /* \"#utility.yul\":1172:1193   */\n      tag_118\n      jump\t// in\n    tag_117:\n        /* \"#utility.yul\":1167:1170   */\n      dup3\n        /* \"#utility.yul\":1160:1194   */\n      mstore\n        /* \"#utility.yul\":1091:1200   */\n      pop\n      pop\n      jump\t// out\n        /* \"#utility.yul\":1206:1324   */\n    tag_119:\n        /* \"#utility.yul\":1293:1317   */\n      tag_121\n        /* \"#utility.yul\":1311:1316   */\n      dup2\n        /* \"#utility.yul\":1293:1317   */\n      tag_122\n      jump\t// in\n    tag_121:\n        /* \"#utility.yul\":1288:1291   */\n      dup3\n        /* \"#utility.yul\":1281:1318   */\n      mstore\n        /* \"#utility.yul\":1206:1324   */\n      pop\n      pop\n      jump\t// out\n        /* \"#utility.yul\":1330:1696   */\n    tag_123:\n        /* \"#utility.yul\":1472:1475   */\n      0x00\n        /* \"#utility.yul\":1493:1560   */\n      tag_125\n        /* \"#utility.yul\":1557:1559   */\n      0x14\n        /* \"#utility.yul\":1552:1555   */\n      dup4\n        /* \"#utility.yul\":1493:1560   */\n      tag_126\n      jump\t// in\n    tag_125:\n        /* \"#utility.yul\":1486:1560   */\n      swap2\n      pop\n        /* \"#utility.yul\":1569:1662   */\n      tag_127\n        /* \"#utility.yul\":1658:1661   */\n      dup3\n        /* \"#utility.yul\":1569:1662   */\n      tag_128\n      jump\t// in\n    tag_127:\n        /* \"#utility.yul\":1687:1689   */\n      0x20\n        /* \"#utility.yul\":1682:1685   */\n      dup3\n        /* \"#utility.yul\":1678:1690   */\n      add\n        /* \"#utility.yul\":1671:1690   */\n      swap1\n      pop\n        /* \"#utility.yul\":1330:1696   */\n      swap2\n      swap1\n      pop\n      jump\t// out\n        /* \"#utility.yul\":1702:2068   */\n    tag_129:\n        /* \"#utility.yul\":1844:1847   */\n      0x00\n        /* \"#utility.yul\":1865:1932   */\n      tag_131\n        /* \"#utility.yul\":1929:1931   */\n      0x0e\n        /* \"#utility.yul\":1924:1927   */\n      dup4\n        /* \"#utility.yul\":1865:1932   */\n      tag_126\n      jump\t// in\n    tag_131:\n        /* \"#utility.yul\":1858:1932   */\n      swap2\n      pop\n        /* \"#utility.yul\":1941:2034   */\n      tag_132\n        /* \"#utility.yul\":2030:2033   */\n      dup3\n        /* \"#utility.yul\":1941:2034   */\n      tag_133\n      jump\t// in\n    tag_132:\n        /* \"#utility.yul\":2059:2061   */\n      0x20\n        /* \"#utility.yul\":2054:2057   */\n      dup3\n        /* \"#utility.yul\":2050:2062   */\n      add\n        /* \"#utility.yul\":2043:2062   */\n      swap1\n      pop\n        /* \"#utility.yul\":1702:2068   */\n      swap2\n      swap1\n      pop\n      jump\t// out\n        /* \"#utility.yul\":2074:2440   */\n    tag_134:\n        /* \"#utility.yul\":2216:2219   */\n      0x00\n        /* \"#utility.yul\":2237:2304   */\n      tag_136\n        /* \"#utility.yul\":2301:2303   */\n      0x12\n        /* \"#utility.yul\":2296:2299   */\n      dup4\n        /* \"#utility.yul\":2237:2304   */\n      tag_126\n      jump\t// in\n    tag_136:\n        /* \"#utility.yul\":2230:2304   */\n      swap2\n      pop\n        /* \"#utility.yul\":2313:2406   */\n      tag_137\n        /* \"#utility.yul\":2402:2405   */\n      dup3\n        /* \"#utility.yul\":2313:2406   */\n      tag_138\n      jump\t// in\n    tag_137:\n        /* \"#utility.yul\":2431:2433   */\n      0x20\n        /* \"#utility.yul\":2426:2429   */\n      dup3\n        /* \"#utility.yul\":2422:2434   */\n      add\n        /* \"#utility.yul\":2415:2434   */\n      swap1\n      pop\n        /* \"#utility.yul\":2074:2440   */\n      swap2\n      swap1\n      pop\n      jump\t// out\n        /* \"#utility.yul\":2446:2812   */\n    tag_139:\n        /* \"#utility.yul\":2588:2591   */\n      0x00\n        /* \"#utility.yul\":2609:2676   */\n      tag_141\n        /* \"#utility.yul\":2673:2675   */\n      0x19\n        /* \"#utility.yul\":2668:2671   */\n      dup4\n        /* \"#utility.yul\":2609:2676   */\n      tag_126\n      jump\t// in\n    tag_141:\n        /* \"#utility.yul\":2602:2676   */\n      swap2\n      pop\n        /* \"#utility.yul\":2685:2778   */\n      tag_142\n        /* \"#utility.yul\":2774:2777   */\n      dup3\n        /* \"#utility.yul\":2685:2778   */\n      tag_143\n      jump\t// in\n    tag_142:\n        /* \"#utility.yul\":2803:2805   */\n      0x20\n        /* \"#utility.yul\":2798:2801   */\n      dup3\n        /* \"#utility.yul\":2794:2806   */\n      add\n        /* \"#utility.yul\":2787:2806   */\n      swap1\n      pop\n        /* \"#utility.yul\":2446:2812   */\n      swap2\n      swap1\n      pop\n      jump\t// out\n        /* \"#utility.yul\":2818:3184   */\n    tag_144:\n        /* \"#utility.yul\":2960:2963   */\n      0x00\n        /* \"#utility.yul\":2981:3048   */\n      tag_146\n        /* \"#utility.yul\":3045:3047   */\n      0x1e\n        /* \"#utility.yul\":3040:3043   */\n      dup4\n        /* \"#utility.yul\":2981:3048   */\n      tag_126\n      jump\t// in\n    tag_146:\n        /* \"#utility.yul\":2974:3048   */\n      swap2\n      pop\n        /* \"#utility.yul\":3057:3150   */\n      tag_147\n        /* \"#utility.yul\":3146:3149   */\n      dup3\n        /* \"#utility.yul\":3057:3150   */\n      tag_148\n      jump\t// in\n    tag_147:\n        /* \"#utility.yul\":3175:3177   */\n      0x20\n        /* \"#utility.yul\":3170:3173   */\n      dup3\n        /* \"#utility.yul\":3166:3178   */\n      add\n        /* \"#utility.yul\":3159:3178   */\n      swap1\n      pop\n        /* \"#utility.yul\":2818:3184   */\n      swap2\n      swap1\n      pop\n      jump\t// out\n        /* \"#utility.yul\":3190:3308   */\n    tag_149:\n        /* \"#utility.yul\":3277:3301   */\n      tag_151\n        /* \"#utility.yul\":3295:3300   */\n      dup2\n        /* \"#utility.yul\":3277:3301   */\n      tag_152\n      jump\t// in\n    tag_151:\n        /* \"#utility.yul\":3272:3275   */\n      dup3\n        /* \"#utility.yul\":3265:3302   */\n      mstore\n        /* \"#utility.yul\":3190:3308   */\n      pop\n      pop\n      jump\t// out\n        /* \"#utility.yul\":3314:3536   */\n    tag_23:\n        /* \"#utility.yul\":3407:3411   */\n      0x00\n        /* \"#utility.yul\":3445:3447   */\n      0x20\n        /* \"#utility.yul\":3434:3443   */\n      dup3\n        /* \"#utility.yul\":3430:3448   */\n      add\n        /* \"#utility.yul\":3422:3448   */\n      swap1\n      pop\n        /* \"#utility.yul\":3458:3529   */\n      tag_154\n        /* \"#utility.yul\":3526:3527   */\n      0x00\n        /* \"#utility.yul\":3515:3524   */\n      dup4\n        /* \"#utility.yul\":3511:3528   */\n      add\n        /* \"#utility.yul\":3502:3508   */\n      dup5\n        /* \"#utility.yul\":3458:3529   */\n      tag_111\n      jump\t// in\n    tag_154:\n        /* \"#utility.yul\":3314:3536   */\n      swap3\n      swap2\n      pop\n      pop\n      jump\t// out\n        /* \"#utility.yul\":3542:3764   */\n    tag_40:\n        /* \"#utility.yul\":3635:3639   */\n      0x00\n        /* \"#utility.yul\":3673:3675   */\n      0x20\n        /* \"#utility.yul\":3662:3671   */\n      dup3\n        /* \"#utility.yul\":3658:3676   */\n      add\n        /* \"#utility.yul\":3650:3676   */\n      swap1\n      pop\n        /* \"#utility.yul\":3686:3757   */\n      tag_156\n        /* \"#utility.yul\":3754:3755   */\n      0x00\n        /* \"#utility.yul\":3743:3752   */\n      dup4\n        /* \"#utility.yul\":3739:3756   */\n      add\n        /* \"#utility.yul\":3730:3736   */\n      dup5\n        /* \"#utility.yul\":3686:3757   */\n      tag_119\n      jump\t// in\n    tag_156:\n        /* \"#utility.yul\":3542:3764   */\n      swap3\n      swap2\n      pop\n      pop\n      jump\t// out\n        /* \"#utility.yul\":3770:4102   */\n    tag_19:\n        /* \"#utility.yul\":3891:3895   */\n      0x00\n        /* \"#utility.yul\":3929:3931   */\n      0x40\n        /* \"#utility.yul\":3918:3927   */\n      dup3\n        /* \"#utility.yul\":3914:3932   */\n      add\n        /* \"#utility.yul\":3906:3932   */\n      swap1\n      pop\n        /* \"#utility.yul\":3942:4013   */\n      tag_158\n        /* \"#utility.yul\":4010:4011   */\n      0x00\n        /* \"#utility.yul\":3999:4008   */\n      dup4\n        /* \"#utility.yul\":3995:4012   */\n      add\n        /* \"#utility.yul\":3986:3992   */\n      dup6\n        /* \"#utility.yul\":3942:4013   */\n      tag_119\n      jump\t// in\n    tag_158:\n        /* \"#utility.yul\":4023:4095   */\n      tag_159\n        /* \"#utility.yul\":4091:4093   */\n      0x20\n        /* \"#utility.yul\":4080:4089   */\n      dup4\n        /* \"#utility.yul\":4076:4094   */\n      add\n        /* \"#utility.yul\":4067:4073   */\n      dup5\n        /* \"#utility.yul\":4023:4095   */\n      tag_149\n      jump\t// in\n    tag_159:\n        /* \"#utility.yul\":3770:4102   */\n      swap4\n      swap3\n      pop\n      pop\n      pop\n      jump\t// out\n        /* \"#utility.yul\":4108:4527   */\n    tag_44:\n        /* \"#utility.yul\":4274:4278   */\n      0x00\n        /* \"#utility.yul\":4312:4314   */\n      0x20\n        /* \"#utility.yul\":4301:4310   */\n      dup3\n        /* \"#utility.yul\":4297:4315   */\n      add\n        /* \"#utility.yul\":4289:4315   */\n      swap1\n      pop\n        /* \"#utility.yul\":4361:4370   */\n      dup2\n        /* \"#utility.yul\":4355:4359   */\n      dup2\n        /* \"#utility.yul\":4351:4371   */\n      sub\n        /* \"#utility.yul\":4347:4348   */\n      0x00\n        /* \"#utility.yul\":4336:4345   */\n      dup4\n        /* \"#utility.yul\":4332:4349   */\n      add\n        /* \"#utility.yul\":4325:4372   */\n      mstore\n        /* \"#utility.yul\":4389:4520   */\n      tag_161\n        /* \"#utility.yul\":4515:4519   */\n      dup2\n        /* \"#utility.yul\":4389:4520   */\n      tag_123\n      jump\t// in\n    tag_161:\n        /* \"#utility.yul\":4381:4520   */\n      swap1\n      pop\n        /* \"#utility.yul\":4108:4527   */\n      swap2\n      swap1\n      pop\n      jump\t// out\n        /* \"#utility.yul\":4533:4952   */\n    tag_47:\n        /* \"#utility.yul\":4699:4703   */\n      0x00\n        /* \"#utility.yul\":4737:4739   */\n      0x20\n        /* \"#utility.yul\":4726:4735   */\n      dup3\n        /* \"#utility.yul\":4722:4740   */\n      add\n        /* \"#utility.yul\":4714:4740   */\n      swap1\n      pop\n        /* \"#utility.yul\":4786:4795   */\n      dup2\n        /* \"#utility.yul\":4780:4784   */\n      dup2\n        /* \"#utility.yul\":4776:4796   */\n      sub\n        /* \"#utility.yul\":4772:4773   */\n      0x00\n        /* \"#utility.yul\":4761:4770   */\n      dup4\n        /* \"#utility.yul\":4757:4774   */\n      add\n        /* \"#utility.yul\":4750:4797   */\n      mstore\n        /* \"#utility.yul\":4814:4945   */\n      tag_163\n        /* \"#utility.yul\":4940:4944   */\n      dup2\n        /* \"#utility.yul\":4814:4945   */\n      tag_129\n      jump\t// in\n    tag_163:\n        /* \"#utility.yul\":4806:4945   */\n      swap1\n      pop\n        /* \"#utility.yul\":4533:4952   */\n      swap2\n      swap1\n      pop\n      jump\t// out\n        /* \"#utility.yul\":4958:5377   */\n    tag_59:\n        /* \"#utility.yul\":5124:5128   */\n      0x00\n        /* \"#utility.yul\":5162:5164   */\n      0x20\n        /* \"#utility.yul\":5151:5160   */\n      dup3\n        /* \"#utility.yul\":5147:5165   */\n      add\n        /* \"#utility.yul\":5139:5165   */\n      swap1\n      pop\n        /* \"#utility.yul\":5211:5220   */\n      dup2\n        /* \"#utility.yul\":5205:5209   */\n      dup2\n        /* \"#utility.yul\":5201:5221   */\n      sub\n        /* \"#utility.yul\":5197:5198   */\n      0x00\n        /* \"#utility.yul\":5186:5195   */\n      dup4\n        /* \"#utility.yul\":5182:5199   */\n      add\n        /* \"#utility.yul\":5175:5222   */\n      mstore\n        /* \"#utility.yul\":5239:5370   */\n      tag_165\n        /* \"#utility.yul\":5365:5369   */\n      dup2\n        /* \"#utility.yul\":5239:5370   */\n      tag_134\n      jump\t// in\n    tag_165:\n        /* \"#utility.yul\":5231:5370   */\n      swap1\n      pop\n        /* \"#utility.yul\":4958:5377   */\n      swap2\n      swap1\n      pop\n      jump\t// out\n        /* \"#utility.yul\":5383:5802   */\n    tag_67:\n        /* \"#utility.yul\":5549:5553   */\n      0x00\n        /* \"#utility.yul\":5587:5589   */\n      0x20\n        /* \"#utility.yul\":5576:5585   */\n      dup3\n        /* \"#utility.yul\":5572:5590   */\n      add\n        /* \"#utility.yul\":5564:5590   */\n      swap1\n      pop\n        /* \"#utility.yul\":5636:5645   */\n      dup2\n        /* \"#utility.yul\":5630:5634   */\n      dup2\n        /* \"#utility.yul\":5626:5646   */\n      sub\n        /* \"#utility.yul\":5622:5623   */\n      0x00\n        /* \"#utility.yul\":5611:5620   */\n      dup4\n        /* \"#utility.yul\":5607:5624   */\n      add\n        /* \"#utility.yul\":5600:5647   */\n      mstore\n        /* \"#utility.yul\":5664:5795   */\n      tag_167\n        /* \"#utility.yul\":5790:5794   */\n      dup2\n        /* \"#utility.yul\":5664:5795   */\n      tag_139\n      jump\t// in\n    tag_167:\n        /* \"#utility.yul\":5656:5795   */\n      swap1\n      pop\n        /* \"#utility.yul\":5383:5802   */\n      swap2\n      swap1\n      pop\n      jump\t// out\n        /* \"#utility.yul\":5808:6227   */\n    tag_62:\n        /* \"#utility.yul\":5974:5978   */\n      0x00\n        /* \"#utility.yul\":6012:6014   */\n      0x20\n        /* \"#utility.yul\":6001:6010   */\n      dup3\n        /* \"#utility.yul\":5997:6015   */\n      add\n        /* \"#utility.yul\":5989:6015   */\n      swap1\n      pop\n        /* \"#utility.yul\":6061:6070   */\n      dup2\n        /* \"#utility.yul\":6055:6059   */\n      dup2\n        /* \"#utility.yul\":6051:6071   */\n      sub\n        /* \"#utility.yul\":6047:6048   */\n      0x00\n        /* \"#utility.yul\":6036:6045   */\n      dup4\n        /* \"#utility.yul\":6032:6049   */\n      add\n        /* \"#utility.yul\":6025:6072   */\n      mstore\n        /* \"#utility.yul\":6089:6220   */\n      tag_169\n        /* \"#utility.yul\":6215:6219   */\n      dup2\n        /* \"#utility.yul\":6089:6220   */\n      tag_144\n      jump\t// in\n    tag_169:\n        /* \"#utility.yul\":6081:6220   */\n      swap1\n      pop\n        /* \"#utility.yul\":5808:6227   */\n      swap2\n      swap1\n      pop\n      jump\t// out\n        /* \"#utility.yul\":6233:6455   */\n    tag_31:\n        /* \"#utility.yul\":6326:6330   */\n      0x00\n        /* \"#utility.yul\":6364:6366   */\n      0x20\n        /* \"#utility.yul\":6353:6362   */\n      dup3\n        /* \"#utility.yul\":6349:6367   */\n      add\n        /* \"#utility.yul\":6341:6367   */\n      swap1\n      pop\n        /* \"#utility.yul\":6377:6448   */\n      tag_171\n        /* \"#utility.yul\":6445:6446   */\n      0x00\n        /* \"#utility.yul\":6434:6443   */\n      dup4\n        /* \"#utility.yul\":6430:6447   */\n      add\n        /* \"#utility.yul\":6421:6427   */\n      dup5\n        /* \"#utility.yul\":6377:6448   */\n      tag_149\n      jump\t// in\n    tag_171:\n        /* \"#utility.yul\":6233:6455   */\n      swap3\n      swap2\n      pop\n      pop\n      jump\t// out\n        /* \"#utility.yul\":6461:7002   */\n    tag_36:\n        /* \"#utility.yul\":6632:6636   */\n      0x00\n        /* \"#utility.yul\":6670:6673   */\n      0x80\n        /* \"#utility.yul\":6659:6668   */\n      dup3\n        /* \"#utility.yul\":6655:6674   */\n      add\n        /* \"#utility.yul\":6647:6674   */\n      swap1\n      pop\n        /* \"#utility.yul\":6684:6755   */\n      tag_173\n        /* \"#utility.yul\":6752:6753   */\n      0x00\n        /* \"#utility.yul\":6741:6750   */\n      dup4\n        /* \"#utility.yul\":6737:6754   */\n      add\n        /* \"#utility.yul\":6728:6734   */\n      dup8\n        /* \"#utility.yul\":6684:6755   */\n      tag_149\n      jump\t// in\n    tag_173:\n        /* \"#utility.yul\":6765:6831   */\n      tag_174\n        /* \"#utility.yul\":6827:6829   */\n      0x20\n        /* \"#utility.yul\":6816:6825   */\n      dup4\n        /* \"#utility.yul\":6812:6830   */\n      add\n        /* \"#utility.yul\":6803:6809   */\n      dup7\n        /* \"#utility.yul\":6765:6831   */\n      tag_115\n      jump\t// in\n    tag_174:\n        /* \"#utility.yul\":6841:6913   */\n      tag_175\n        /* \"#utility.yul\":6909:6911   */\n      0x40\n        /* \"#utility.yul\":6898:6907   */\n      dup4\n        /* \"#utility.yul\":6894:6912   */\n      add\n        /* \"#utility.yul\":6885:6891   */\n      dup6\n        /* \"#utility.yul\":6841:6913   */\n      tag_111\n      jump\t// in\n    tag_175:\n        /* \"#utility.yul\":6923:6995   */\n      tag_176\n        /* \"#utility.yul\":6991:6993   */\n      0x60\n        /* \"#utility.yul\":6980:6989   */\n      dup4\n        /* \"#utility.yul\":6976:6994   */\n      add\n        /* \"#utility.yul\":6967:6973   */\n      dup5\n        /* \"#utility.yul\":6923:6995   */\n      tag_149\n      jump\t// in\n    tag_176:\n        /* \"#utility.yul\":6461:7002   */\n      swap6\n      swap5\n      pop\n      pop\n      pop\n      pop\n      pop\n      jump\t// out\n        /* \"#utility.yul\":7089:7258   */\n    tag_126:\n        /* \"#utility.yul\":7173:7184   */\n      0x00\n        /* \"#utility.yul\":7207:7213   */\n      dup3\n        /* \"#utility.yul\":7202:7205   */\n      dup3\n        /* \"#utility.yul\":7195:7214   */\n      mstore\n        /* \"#utility.yul\":7247:7251   */\n      0x20\n        /* \"#utility.yul\":7242:7245   */\n      dup3\n        /* \"#utility.yul\":7238:7252   */\n      add\n        /* \"#utility.yul\":7223:7252   */\n      swap1\n      pop\n        /* \"#utility.yul\":7089:7258   */\n      swap3\n      swap2\n      pop\n      pop\n      jump\t// out\n        /* \"#utility.yul\":7264:7569   */\n    tag_53:\n        /* \"#utility.yul\":7304:7307   */\n      0x00\n        /* \"#utility.yul\":7323:7343   */\n      tag_181\n        /* \"#utility.yul\":7341:7342   */\n      dup3\n        /* \"#utility.yul\":7323:7343   */\n      tag_152\n      jump\t// in\n    tag_181:\n        /* \"#utility.yul\":7318:7343   */\n      swap2\n      pop\n        /* \"#utility.yul\":7357:7377   */\n      tag_182\n        /* \"#utility.yul\":7375:7376   */\n      dup4\n        /* \"#utility.yul\":7357:7377   */\n      tag_152\n      jump\t// in\n    tag_182:\n        /* \"#utility.yul\":7352:7377   */\n      swap3\n      pop\n        /* \"#utility.yul\":7511:7512   */\n      dup3\n        /* \"#utility.yul\":7443:7509   */\n      0xffffffffffffffffffffffffffffffffffffffffffffffffffffffffffffffff\n        /* \"#utility.yul\":7439:7513   */\n      sub\n        /* \"#utility.yul\":7436:7437   */\n      dup3\n        /* \"#utility.yul\":7433:7514   */\n      gt\n        /* \"#utility.yul\":7430:7537   */\n      iszero\n      tag_183\n      jumpi\n        /* \"#utility.yul\":7517:7535   */\n      tag_184\n      tag_185\n      jump\t// in\n    tag_184:\n        /* \"#utility.yul\":7430:7537   */\n    tag_183:\n        /* \"#utility.yul\":7561:7562   */\n      dup3\n        /* \"#utility.yul\":7558:7559   */\n      dup3\n        /* \"#utility.yul\":7554:7563   */\n      add\n        /* \"#utility.yul\":7547:7563   */\n      swap1\n      pop\n        /* \"#utility.yul\":7264:7569   */\n      swap3\n      swap2\n      pop\n      pop\n      jump\t// out\n        /* \"#utility.yul\":7575:7671   */\n    tag_114:\n        /* \"#utility.yul\":7612:7619   */\n      0x00\n        /* \"#utility.yul\":7641:7665   */\n      tag_187\n        /* \"#utility.yul\":7659:7664   */\n      dup3\n        /* \"#utility.yul\":7641:7665   */\n      tag_188\n      jump\t// in\n    tag_187:\n        /* \"#utility.yul\":7630:7665   */\n      swap1\n      pop\n        /* \"#utility.yul\":7575:7671   */\n      swap2\n      swap1\n      pop\n      jump\t// out\n        /* \"#utility.yul\":7677:7767   */\n    tag_118:\n        /* \"#utility.yul\":7711:7718   */\n      0x00\n        /* \"#utility.yul\":7754:7759   */\n      dup2\n        /* \"#utility.yul\":7747:7760   */\n      iszero\n        /* \"#utility.yul\":7740:7761   */\n      iszero\n        /* \"#utility.yul\":7729:7761   */\n      swap1\n      pop\n        /* \"#utility.yul\":7677:7767   */\n      swap2\n      swap1\n      pop\n      jump\t// out\n        /* \"#utility.yul\":7773:7850   */\n    tag_122:\n        /* \"#utility.yul\":7810:7817   */\n      0x00\n        /* \"#utility.yul\":7839:7844   */\n      dup2\n        /* \"#utility.yul\":7828:7844   */\n      swap1\n      pop\n        /* \"#utility.yul\":7773:7850   */\n      swap2\n      swap1\n      pop\n      jump\t// out\n        /* \"#utility.yul\":7856:7982   */\n    tag_188:\n        /* \"#utility.yul\":7893:7900   */\n      0x00\n        /* \"#utility.yul\":7933:7975   */\n      0xffffffffffffffffffffffffffffffffffffffff\n        /* \"#utility.yul\":7926:7931   */\n      dup3\n        /* \"#utility.yul\":7922:7976   */\n      and\n        /* \"#utility.yul\":7911:7976   */\n      swap1\n      pop\n        /* \"#utility.yul\":7856:7982   */\n      swap2\n      swap1\n      pop\n      jump\t// out\n        /* \"#utility.yul\":7988:8065   */\n    tag_152:\n        /* \"#utility.yul\":8025:8032   */\n      0x00\n        /* \"#utility.yul\":8054:8059   */\n      dup2\n        /* \"#utility.yul\":8043:8059   */\n      swap1\n      pop\n        /* \"#utility.yul\":7988:8065   */\n      swap2\n      swap1\n      pop\n      jump\t// out\n        /* \"#utility.yul\":8071:8304   */\n    tag_87:\n        /* \"#utility.yul\":8110:8113   */\n      0x00\n        /* \"#utility.yul\":8133:8157   */\n      tag_194\n        /* \"#utility.yul\":8151:8156   */\n      dup3\n        /* \"#utility.yul\":8133:8157   */\n      tag_152\n      jump\t// in\n    tag_194:\n        /* \"#utility.yul\":8124:8157   */\n      swap2\n      pop\n        /* \"#utility.yul\":8179:8245   */\n      0xffffffffffffffffffffffffffffffffffffffffffffffffffffffffffffffff\n        /* \"#utility.yul\":8172:8177   */\n      dup3\n        /* \"#utility.yul\":8169:8246   */\n      eq\n        /* \"#utility.yul\":8166:8269   */\n      iszero\n      tag_195\n      jumpi\n        /* \"#utility.yul\":8249:8267   */\n      tag_196\n      tag_185\n      jump\t// in\n    tag_196:\n        /* \"#utility.yul\":8166:8269   */\n    tag_195:\n        /* \"#utility.yul\":8296:8297   */\n      0x01\n        /* \"#utility.yul\":8289:8294   */\n      dup3\n        /* \"#utility.yul\":8285:8298   */\n      add\n        /* \"#utility.yul\":8278:8298   */\n      swap1\n      pop\n        /* \"#utility.yul\":8071:8304   */\n      swap2\n      swap1\n      pop\n      jump\t// out\n        /* \"#utility.yul\":8310:8490   */\n    tag_185:\n        /* \"#utility.yul\":8358:8435   */\n      0x4e487b7100000000000000000000000000000000000000000000000000000000\n        /* \"#utility.yul\":8355:8356   */\n      0x00\n        /* \"#utility.yul\":8348:8436   */\n      mstore\n        /* \"#utility.yul\":8455:8459   */\n      0x11\n        /* \"#utility.yul\":8452:8453   */\n      0x04\n        /* \"#utility.yul\":8445:8460   */\n      mstore\n        /* \"#utility.yul\":8479:8483   */\n      0x24\n        /* \"#utility.yul\":8476:8477   */\n      0x00\n        /* \"#utility.yul\":8469:8484   */\n      revert\n        /* \"#utility.yul\":8496:8676   */\n    tag_50:\n        /* \"#utility.yul\":8544:8621   */\n      0x4e487b7100000000000000000000000000000000000000000000000000000000\n        /* \"#utility.yul\":8541:8542   */\n      0x00\n        /* \"#utility.yul\":8534:8622   */\n      mstore\n        /* \"#utility.yul\":8641:8645   */\n      0x32\n        /* \"#utility.yul\":8638:8639   */\n      0x04\n        /* \"#utility.yul\":8631:8646   */\n      mstore\n        /* \"#utility.yul\":8665:8669   */\n      0x24\n        /* \"#utility.yul\":8662:8663   */\n      0x00\n        /* \"#utility.yul\":8655:8670   */\n      revert\n        /* \"#utility.yul\":8805:8922   */\n    tag_105:\n        /* \"#utility.yul\":8914:8915   */\n      0x00\n        /* \"#utility.yul\":8911:8912   */\n      dup1\n        /* \"#utility.yul\":8904:8916   */\n      revert\n        /* \"#utility.yul\":8928:9098   */\n    tag_128:\n        /* \"#utility.yul\":9068:9090   */\n      0x486173206e6f20726967687420746f20766f7465000000000000000000000000\n        /* \"#utility.yul\":9064:9065   */\n      0x00\n        /* \"#utility.yul\":9056:9062   */\n      dup3\n        /* \"#utility.yul\":9052:9066   */\n      add\n        /* \"#utility.yul\":9045:9091   */\n      mstore\n        /* \"#utility.yul\":8928:9098   */\n      pop\n      jump\t// out\n        /* \"#utility.yul\":9104:9268   */\n    tag_133:\n        /* \"#utility.yul\":9244:9260   */\n      0x416c726561647920766f7465642e000000000000000000000000000000000000\n        /* \"#utility.yul\":9240:9241   */\n      0x00\n        /* \"#utility.yul\":9232:9238   */\n      dup3\n        /* \"#utility.yul\":9228:9242   */\n      add\n        /* \"#utility.yul\":9221:9261   */\n      mstore\n        /* \"#utility.yul\":9104:9268   */\n      pop\n      jump\t// out\n        /* \"#utility.yul\":9274:9442   */\n    tag_138:\n        /* \"#utility.yul\":9414:9434   */\n      0x596f7520616c726561647920766f7465642e0000000000000000000000000000\n        /* \"#utility.yul\":9410:9411   */\n      0x00\n        /* \"#utility.yul\":9402:9408   */\n      dup3\n        /* \"#utility.yul\":9398:9412   */\n      add\n        /* \"#utility.yul\":9391:9435   */\n      mstore\n        /* \"#utility.yul\":9274:9442   */\n      pop\n      jump\t// out\n        /* \"#utility.yul\":9448:9623   */\n    tag_143:\n        /* \"#utility.yul\":9588:9615   */\n      0x466f756e64206c6f6f7020696e2064656c65676174696f6e2e00000000000000\n        /* \"#utility.yul\":9584:9585   */\n      0x00\n        /* \"#utility.yul\":9576:9582   */\n      dup3\n        /* \"#utility.yul\":9572:9586   */\n      add\n        /* \"#utility.yul\":9565:9616   */\n      mstore\n        /* \"#utility.yul\":9448:9623   */\n      pop\n      jump\t// out\n        /* \"#utility.yul\":9629:9809   */\n    tag_148:\n        /* \"#utility.yul\":9769:9801   */\n      0x53656c662d64656c65676174696f6e20697320646973616c6c6f7765642e0000\n        /* \"#utility.yul\":9765:9766   */\n      0x00\n        /* \"#utility.yul\":9757:9763   */\n      dup3\n        /* \"#utility.yul\":9753:9767   */\n      add\n        /* \"#utility.yul\":9746:9802   */\n      mstore\n        /* \"#utility.yul\":9629:9809   */\n      pop\n      jump\t// out\n        /* \"#utility.yul\":9815:9937   */\n    tag_97:\n        /* \"#utility.yul\":9888:9912   */\n      tag_208\n        /* \"#utility.yul\":9906:9911   */\n      dup2\n        /* \"#utility.yul\":9888:9912   */\n      tag_114\n      jump\t// in\n    tag_208:\n        /* \"#utility.yul\":9881:9886   */\n      dup2\n        /* \"#utility.yul\":9878:9913   */\n      eq\n        /* \"#utility.yul\":9868:9931   */\n      tag_209\n      jumpi\n        /* \"#utility.yul\":9927:9928   */\n      0x00\n        /* \"#utility.yul\":9924:9925   */\n      dup1\n        /* \"#utility.yul\":9917:9929   */\n      revert\n        /* \"#utility.yul\":9868:9931   */\n    tag_209:\n        /* \"#utility.yul\":9815:9937   */\n      pop\n      jump\t// out\n        /* \"#utility.yul\":9943:10065   */\n    tag_101:\n        /* \"#utility.yul\":10016:10040   */\n      tag_211\n        /* \"#utility.yul\":10034:10039   */\n      dup2\n        /* \"#utility.yul\":10016:10040   */\n      tag_152\n      jump\t// in\n    tag_211:\n        /* \"#utility.yul\":10009:10014   */\n      dup2\n        /* \"#utility.yul\":10006:10041   */\n      eq\n        /* \"#utility.yul\":9996:10059   */\n      tag_212\n      jumpi\n        /* \"#utility.yul\":10055:10056   */\n      0x00\n        /* \"#utility.yul\":10052:10053   */\n      dup1\n        /* \"#utility.yul\":10045:10057   */\n      revert\n        /* \"#utility.yul\":9996:10059   */\n    tag_212:\n        /* \"#utility.yul\":9943:10065   */\n      pop\n      jump\t// out\n\n    auxdata: 0xa2646970667358221220d41ec2b01f3f4893ab44bc4e1d63fe4767fe6a904615b4a12f779804d6cae26f64736f6c63430008070033\n}\n",
				"bytecode": {
					"linkReferences": {},
					"object": "608060405234801561001057600080fd5b50610d30806100206000396000f3fe608060405234801561001057600080fd5b506004361061007d5760003560e01c80635c19a95c1161005b5780635c19a95c146100ed578063609ff1bd14610109578063a3ec138d14610127578063e2ba53f01461015a5761007d565b80630121b93f14610082578063013cf08b1461009e5780632e4176cf146100cf575b600080fd5b61009c60048036038101906100979190610823565b610178565b005b6100b860048036038101906100b39190610823565b6102bf565b6040516100c6929190610971565b60405180910390f35b6100d76102f3565b6040516100e4919061093b565b60405180910390f35b610107600480360381019061010291906107f6565b610317565b005b6101116106b3565b60405161011e9190610a3a565b60405180910390f35b610141600480360381019061013c91906107f6565b61073b565b6040516101519493929190610a55565b60405180910390f35b610162610798565b60405161016f9190610956565b60405180910390f35b6000600160003373ffffffffffffffffffffffffffffffffffffffff1673ffffffffffffffffffffffffffffffffffffffff1681526020019081526020016000209050600081600001541415610203576040517f08c379a00000000000000000000000000000000000000000000000000000000081526004016101fa9061099a565b60405180910390fd5b8060010160009054906101000a900460ff1615610255576040517f08c379a000000000000000000000000000000000000000000000000000000000815260040161024c906109ba565b60405180910390fd5b60018160010160006101000a81548160ff02191690831515021790555081816002018190555080600001546002838154811061029457610293610bcb565b5b906000526020600020906002020160010160008282546102b49190610aab565b925050819055505050565b600281815481106102cf57600080fd5b90600052602060002090600202016000915090508060000154908060010154905082565b60008054906101000a900473ffffffffffffffffffffffffffffffffffffffff1681565b6000600160003373ffffffffffffffffffffffffffffffffffffffff1673ffffffffffffffffffffffffffffffffffffffff16815260200190815260200160002090508060010160009054906101000a900460ff16156103ac576040517f08c379a00000000000000000000000000000000000000000000000000000000081526004016103a3906109da565b60405180910390fd5b3373ffffffffffffffffffffffffffffffffffffffff168273ffffffffffffffffffffffffffffffffffffffff16141561041b576040517f08c379a000000000000000000000000000000000000000000000000000000000815260040161041290610a1a565b60405180910390fd5b5b600073ffffffffffffffffffffffffffffffffffffffff16600160008473ffffffffffffffffffffffffffffffffffffffff1673ffffffffffffffffffffffffffffffffffffffff16815260200190815260200160002060010160019054906101000a900473ffffffffffffffffffffffffffffffffffffffff1673ffffffffffffffffffffffffffffffffffffffff161461058b57600160008373ffffffffffffffffffffffffffffffffffffffff1673ffffffffffffffffffffffffffffffffffffffff16815260200190815260200160002060010160019054906101000a900473ffffffffffffffffffffffffffffffffffffffff1691503373ffffffffffffffffffffffffffffffffffffffff168273ffffffffffffffffffffffffffffffffffffffff161415610586576040517f08c379a000000000000000000000000000000000000000000000000000000000815260040161057d906109fa565b60405180910390fd5b61041c565b60018160010160006101000a81548160ff021916908315150217905550818160010160016101000a81548173ffffffffffffffffffffffffffffffffffffffff021916908373ffffffffffffffffffffffffffffffffffffffff1602179055506000600160008473ffffffffffffffffffffffffffffffffffffffff1673ffffffffffffffffffffffffffffffffffffffff16815260200190815260200160002090508060010160009054906101000a900460ff161561068e578160000154600282600201548154811061066257610661610bcb565b5b906000526020600020906002020160010160008282546106829190610aab565b925050819055506106ae565b81600001548160000160008282546106a69190610aab565b925050819055505b505050565b6000806000905060005b6002805490508110156107365781600282815481106106df576106de610bcb565b5b9060005260206000209060020201600101541115610723576002818154811061070b5761070a610bcb565b5b90600052602060002090600202016001015491508092505b808061072e90610b53565b9150506106bd565b505090565b60016020528060005260406000206000915090508060000154908060010160009054906101000a900460ff16908060010160019054906101000a900473ffffffffffffffffffffffffffffffffffffffff16908060020154905084565b600060026107a46106b3565b815481106107b5576107b4610bcb565b5b906000526020600020906002020160000154905090565b6000813590506107db81610ccc565b92915050565b6000813590506107f081610ce3565b92915050565b60006020828403121561080c5761080b610bfa565b5b600061081a848285016107cc565b91505092915050565b60006020828403121561083957610838610bfa565b5b6000610847848285016107e1565b91505092915050565b61085981610b01565b82525050565b61086881610b13565b82525050565b61087781610b1f565b82525050565b600061088a601483610a9a565b915061089582610bff565b602082019050919050565b60006108ad600e83610a9a565b91506108b882610c28565b602082019050919050565b60006108d0601283610a9a565b91506108db82610c51565b602082019050919050565b60006108f3601983610a9a565b91506108fe82610c7a565b602082019050919050565b6000610916601e83610a9a565b915061092182610ca3565b602082019050919050565b61093581610b49565b82525050565b60006020820190506109506000830184610850565b92915050565b600060208201905061096b600083018461086e565b92915050565b6000604082019050610986600083018561086e565b610993602083018461092c565b9392505050565b600060208201905081810360008301526109b38161087d565b9050919050565b600060208201905081810360008301526109d3816108a0565b9050919050565b600060208201905081810360008301526109f3816108c3565b9050919050565b60006020820190508181036000830152610a13816108e6565b9050919050565b60006020820190508181036000830152610a3381610909565b9050919050565b6000602082019050610a4f600083018461092c565b92915050565b6000608082019050610a6a600083018761092c565b610a77602083018661085f565b610a846040830185610850565b610a91606083018461092c565b95945050505050565b600082825260208201905092915050565b6000610ab682610b49565b9150610ac183610b49565b9250827fffffffffffffffffffffffffffffffffffffffffffffffffffffffffffffffff03821115610af657610af5610b9c565b5b828201905092915050565b6000610b0c82610b29565b9050919050565b60008115159050919050565b6000819050919050565b600073ffffffffffffffffffffffffffffffffffffffff82169050919050565b6000819050919050565b6000610b5e82610b49565b91507fffffffffffffffffffffffffffffffffffffffffffffffffffffffffffffffff821415610b9157610b90610b9c565b5b600182019050919050565b7f4e487b7100000000000000000000000000000000000000000000000000000000600052601160045260246000fd5b7f4e487b7100000000000000000000000000000000000000000000000000000000600052603260045260246000fd5b600080fd5b7f486173206e6f20726967687420746f20766f7465000000000000000000000000600082015250565b7f416c726561647920766f7465642e000000000000000000000000000000000000600082015250565b7f596f7520616c726561647920766f7465642e0000000000000000000000000000600082015250565b7f466f756e64206c6f6f7020696e2064656c65676174696f6e2e00000000000000600082015250565b7f53656c662d64656c65676174696f6e20697320646973616c6c6f7765642e0000600082015250565b610cd581610b01565b8114610ce057600080fd5b50565b610cec81610b49565b8114610cf757600080fd5b5056fea2646970667358221220d41ec2b01f3f4893ab44bc4e1d63fe4767fe6a904615b4a12f779804d6cae26f64736f6c63430008070033",
					"opcodes": "PUSH1 0x80 PUSH1 0x40 MSTORE CALLVALUE DUP1 ISZERO PUSH2 0x10 JUMPI PUSH1 0x0 DUP1 REVERT JUMPDEST POP PUSH2 0xD30 DUP1 PUSH2 0x20 PUSH1 0x0 CODECOPY PUSH1 0x0 RETURN INVALID PUSH1 0x80 PUSH1 0x40 MSTORE CALLVALUE DUP1 ISZERO PUSH2 0x10 JUMPI PUSH1 0x0 DUP1 REVERT JUMPDEST POP PUSH1 0x4 CALLDATASIZE LT PUSH2 0x7D JUMPI PUSH1 0x0 CALLDATALOAD PUSH1 0xE0 SHR DUP1 PUSH4 0x5C19A95C GT PUSH2 0x5B JUMPI DUP1 PUSH4 0x5C19A95C EQ PUSH2 0xED JUMPI DUP1 PUSH4 0x609FF1BD EQ PUSH2 0x109 JUMPI DUP1 PUSH4 0xA3EC138D EQ PUSH2 0x127 JUMPI DUP1 PUSH4 0xE2BA53F0 EQ PUSH2 0x15A JUMPI PUSH2 0x7D JUMP JUMPDEST DUP1 PUSH4 0x121B93F EQ PUSH2 0x82 JUMPI DUP1 PUSH4 0x13CF08B EQ PUSH2 0x9E JUMPI DUP1 PUSH4 0x2E4176CF EQ PUSH2 0xCF JUMPI JUMPDEST PUSH1 0x0 DUP1 REVERT JUMPDEST PUSH2 0x9C PUSH1 0x4 DUP1 CALLDATASIZE SUB DUP2 ADD SWAP1 PUSH2 0x97 SWAP2 SWAP1 PUSH2 0x823 JUMP JUMPDEST PUSH2 0x178 JUMP JUMPDEST STOP JUMPDEST PUSH2 0xB8 PUSH1 0x4 DUP1 CALLDATASIZE SUB DUP2 ADD SWAP1 PUSH2 0xB3 SWAP2 SWAP1 PUSH2 0x823 JUMP JUMPDEST PUSH2 0x2BF JUMP JUMPDEST PUSH1 0x40 MLOAD PUSH2 0xC6 SWAP3 SWAP2 SWAP1 PUSH2 0x971 JUMP JUMPDEST PUSH1 0x40 MLOAD DUP1 SWAP2 SUB SWAP1 RETURN JUMPDEST PUSH2 0xD7 PUSH2 0x2F3 JUMP JUMPDEST PUSH1 0x40 MLOAD PUSH2 0xE4 SWAP2 SWAP1 PUSH2 0x93B JUMP JUMPDEST PUSH1 0x40 MLOAD DUP1 SWAP2 SUB SWAP1 RETURN JUMPDEST PUSH2 0x107 PUSH1 0x4 DUP1 CALLDATASIZE SUB DUP2 ADD SWAP1 PUSH2 0x102 SWAP2 SWAP1 PUSH2 0x7F6 JUMP JUMPDEST PUSH2 0x317 JUMP JUMPDEST STOP JUMPDEST PUSH2 0x111 PUSH2 0x6B3 JUMP JUMPDEST PUSH1 0x40 MLOAD PUSH2 0x11E SWAP2 SWAP1 PUSH2 0xA3A JUMP JUMPDEST PUSH1 0x40 MLOAD DUP1 SWAP2 SUB SWAP1 RETURN JUMPDEST PUSH2 0x141 PUSH1 0x4 DUP1 CALLDATASIZE SUB DUP2 ADD SWAP1 PUSH2 0x13C SWAP2 SWAP1 PUSH2 0x7F6 JUMP JUMPDEST PUSH2 0x73B JUMP JUMPDEST PUSH1 0x40 MLOAD PUSH2 0x151 SWAP5 SWAP4 SWAP3 SWAP2 SWAP1 PUSH2 0xA55 JUMP JUMPDEST PUSH1 0x40 MLOAD DUP1 SWAP2 SUB SWAP1 RETURN JUMPDEST PUSH2 0x162 PUSH2 0x798 JUMP JUMPDEST PUSH1 0x40 MLOAD PUSH2 0x16F SWAP2 SWAP1 PUSH2 0x956 JUMP JUMPDEST PUSH1 0x40 MLOAD DUP1 SWAP2 SUB SWAP1 RETURN JUMPDEST PUSH1 0x0 PUSH1 0x1 PUSH1 0x0 CALLER PUSH20 0xFFFFFFFFFFFFFFFFFFFFFFFFFFFFFFFFFFFFFFFF AND PUSH20 0xFFFFFFFFFFFFFFFFFFFFFFFFFFFFFFFFFFFFFFFF AND DUP2 MSTORE PUSH1 0x20 ADD SWAP1 DUP2 MSTORE PUSH1 0x20 ADD PUSH1 0x0 KECCAK256 SWAP1 POP PUSH1 0x0 DUP2 PUSH1 0x0 ADD SLOAD EQ ISZERO PUSH2 0x203 JUMPI PUSH1 0x40 MLOAD PUSH32 0x8C379A000000000000000000000000000000000000000000000000000000000 DUP2 MSTORE PUSH1 0x4 ADD PUSH2 0x1FA SWAP1 PUSH2 0x99A JUMP JUMPDEST PUSH1 0x40 MLOAD DUP1 SWAP2 SUB SWAP1 REVERT JUMPDEST DUP1 PUSH1 0x1 ADD PUSH1 0x0 SWAP1 SLOAD SWAP1 PUSH2 0x100 EXP SWAP1 DIV PUSH1 0xFF AND ISZERO PUSH2 0x255 JUMPI PUSH1 0x40 MLOAD PUSH32 0x8C379A000000000000000000000000000000000000000000000000000000000 DUP2 MSTORE PUSH1 0x4 ADD PUSH2 0x24C SWAP1 PUSH2 0x9BA JUMP JUMPDEST PUSH1 0x40 MLOAD DUP1 SWAP2 SUB SWAP1 REVERT JUMPDEST PUSH1 0x1 DUP2 PUSH1 0x1 ADD PUSH1 0x0 PUSH2 0x100 EXP DUP2 SLOAD DUP2 PUSH1 0xFF MUL NOT AND SWAP1 DUP4 ISZERO ISZERO MUL OR SWAP1 SSTORE POP DUP2 DUP2 PUSH1 0x2 ADD DUP2 SWAP1 SSTORE POP DUP1 PUSH1 0x0 ADD SLOAD PUSH1 0x2 DUP4 DUP2 SLOAD DUP2 LT PUSH2 0x294 JUMPI PUSH2 0x293 PUSH2 0xBCB JUMP JUMPDEST JUMPDEST SWAP1 PUSH1 0x0 MSTORE PUSH1 0x20 PUSH1 0x0 KECCAK256 SWAP1 PUSH1 0x2 MUL ADD PUSH1 0x1 ADD PUSH1 0x0 DUP3 DUP3 SLOAD PUSH2 0x2B4 SWAP2 SWAP1 PUSH2 0xAAB JUMP JUMPDEST SWAP3 POP POP DUP2 SWAP1 SSTORE POP POP POP JUMP JUMPDEST PUSH1 0x2 DUP2 DUP2 SLOAD DUP2 LT PUSH2 0x2CF JUMPI PUSH1 0x0 DUP1 REVERT JUMPDEST SWAP1 PUSH1 0x0 MSTORE PUSH1 0x20 PUSH1 0x0 KECCAK256 SWAP1 PUSH1 0x2 MUL ADD PUSH1 0x0 SWAP2 POP SWAP1 POP DUP1 PUSH1 0x0 ADD SLOAD SWAP1 DUP1 PUSH1 0x1 ADD SLOAD SWAP1 POP DUP3 JUMP JUMPDEST PUSH1 0x0 DUP1 SLOAD SWAP1 PUSH2 0x100 EXP SWAP1 DIV PUSH20 0xFFFFFFFFFFFFFFFFFFFFFFFFFFFFFFFFFFFFFFFF AND DUP2 JUMP JUMPDEST PUSH1 0x0 PUSH1 0x1 PUSH1 0x0 CALLER PUSH20 0xFFFFFFFFFFFFFFFFFFFFFFFFFFFFFFFFFFFFFFFF AND PUSH20 0xFFFFFFFFFFFFFFFFFFFFFFFFFFFFFFFFFFFFFFFF AND DUP2 MSTORE PUSH1 0x20 ADD SWAP1 DUP2 MSTORE PUSH1 0x20 ADD PUSH1 0x0 KECCAK256 SWAP1 POP DUP1 PUSH1 0x1 ADD PUSH1 0x0 SWAP1 SLOAD SWAP1 PUSH2 0x100 EXP SWAP1 DIV PUSH1 0xFF AND ISZERO PUSH2 0x3AC JUMPI PUSH1 0x40 MLOAD PUSH32 0x8C379A000000000000000000000000000000000000000000000000000000000 DUP2 MSTORE PUSH1 0x4 ADD PUSH2 0x3A3 SWAP1 PUSH2 0x9DA JUMP JUMPDEST PUSH1 0x40 MLOAD DUP1 SWAP2 SUB SWAP1 REVERT JUMPDEST CALLER PUSH20 0xFFFFFFFFFFFFFFFFFFFFFFFFFFFFFFFFFFFFFFFF AND DUP3 PUSH20 0xFFFFFFFFFFFFFFFFFFFFFFFFFFFFFFFFFFFFFFFF AND EQ ISZERO PUSH2 0x41B JUMPI PUSH1 0x40 MLOAD PUSH32 0x8C379A000000000000000000000000000000000000000000000000000000000 DUP2 MSTORE PUSH1 0x4 ADD PUSH2 0x412 SWAP1 PUSH2 0xA1A JUMP JUMPDEST PUSH1 0x40 MLOAD DUP1 SWAP2 SUB SWAP1 REVERT JUMPDEST JUMPDEST PUSH1 0x0 PUSH20 0xFFFFFFFFFFFFFFFFFFFFFFFFFFFFFFFFFFFFFFFF AND PUSH1 0x1 PUSH1 0x0 DUP5 PUSH20 0xFFFFFFFFFFFFFFFFFFFFFFFFFFFFFFFFFFFFFFFF AND PUSH20 0xFFFFFFFFFFFFFFFFFFFFFFFFFFFFFFFFFFFFFFFF AND DUP2 MSTORE PUSH1 0x20 ADD SWAP1 DUP2 MSTORE PUSH1 0x20 ADD PUSH1 0x0 KECCAK256 PUSH1 0x1 ADD PUSH1 0x1 SWAP1 SLOAD SWAP1 PUSH2 0x100 EXP SWAP1 DIV PUSH20 0xFFFFFFFFFFFFFFFFFFFFFFFFFFFFFFFFFFFFFFFF AND PUSH20 0xFFFFFFFFFFFFFFFFFFFFFFFFFFFFFFFFFFFFFFFF AND EQ PUSH2 0x58B JUMPI PUSH1 0x1 PUSH1 0x0 DUP4 PUSH20 0xFFFFFFFFFFFFFFFFFFFFFFFFFFFFFFFFFFFFFFFF AND PUSH20 0xFFFFFFFFFFFFFFFFFFFFFFFFFFFFFFFFFFFFFFFF AND DUP2 MSTORE PUSH1 0x20 ADD SWAP1 DUP2 MSTORE PUSH1 0x20 ADD PUSH1 0x0 KECCAK256 PUSH1 0x1 ADD PUSH1 0x1 SWAP1 SLOAD SWAP1 PUSH2 0x100 EXP SWAP1 DIV PUSH20 0xFFFFFFFFFFFFFFFFFFFFFFFFFFFFFFFFFFFFFFFF AND SWAP2 POP CALLER PUSH20 0xFFFFFFFFFFFFFFFFFFFFFFFFFFFFFFFFFFFFFFFF AND DUP3 PUSH20 0xFFFFFFFFFFFFFFFFFFFFFFFFFFFFFFFFFFFFFFFF AND EQ ISZERO PUSH2 0x586 JUMPI PUSH1 0x40 MLOAD PUSH32 0x8C379A000000000000000000000000000000000000000000000000000000000 DUP2 MSTORE PUSH1 0x4 ADD PUSH2 0x57D SWAP1 PUSH2 0x9FA JUMP JUMPDEST PUSH1 0x40 MLOAD DUP1 SWAP2 SUB SWAP1 REVERT JUMPDEST PUSH2 0x41C JUMP JUMPDEST PUSH1 0x1 DUP2 PUSH1 0x1 ADD PUSH1 0x0 PUSH2 0x100 EXP DUP2 SLOAD DUP2 PUSH1 0xFF MUL NOT AND SWAP1 DUP4 ISZERO ISZERO MUL OR SWAP1 SSTORE POP DUP2 DUP2 PUSH1 0x1 ADD PUSH1 0x1 PUSH2 0x100 EXP DUP2 SLOAD DUP2 PUSH20 0xFFFFFFFFFFFFFFFFFFFFFFFFFFFFFFFFFFFFFFFF MUL NOT AND SWAP1 DUP4 PUSH20 0xFFFFFFFFFFFFFFFFFFFFFFFFFFFFFFFFFFFFFFFF AND MUL OR SWAP1 SSTORE POP PUSH1 0x0 PUSH1 0x1 PUSH1 0x0 DUP5 PUSH20 0xFFFFFFFFFFFFFFFFFFFFFFFFFFFFFFFFFFFFFFFF AND PUSH20 0xFFFFFFFFFFFFFFFFFFFFFFFFFFFFFFFFFFFFFFFF AND DUP2 MSTORE PUSH1 0x20 ADD SWAP1 DUP2 MSTORE PUSH1 0x20 ADD PUSH1 0x0 KECCAK256 SWAP1 POP DUP1 PUSH1 0x1 ADD PUSH1 0x0 SWAP1 SLOAD SWAP1 PUSH2 0x100 EXP SWAP1 DIV PUSH1 0xFF AND ISZERO PUSH2 0x68E JUMPI DUP2 PUSH1 0x0 ADD SLOAD PUSH1 0x2 DUP3 PUSH1 0x2 ADD SLOAD DUP2 SLOAD DUP2 LT PUSH2 0x662 JUMPI PUSH2 0x661 PUSH2 0xBCB JUMP JUMPDEST JUMPDEST SWAP1 PUSH1 0x0 MSTORE PUSH1 0x20 PUSH1 0x0 KECCAK256 SWAP1 PUSH1 0x2 MUL ADD PUSH1 0x1 ADD PUSH1 0x0 DUP3 DUP3 SLOAD PUSH2 0x682 SWAP2 SWAP1 PUSH2 0xAAB JUMP JUMPDEST SWAP3 POP POP DUP2 SWAP1 SSTORE POP PUSH2 0x6AE JUMP JUMPDEST DUP2 PUSH1 0x0 ADD SLOAD DUP2 PUSH1 0x0 ADD PUSH1 0x0 DUP3 DUP3 SLOAD PUSH2 0x6A6 SWAP2 SWAP1 PUSH2 0xAAB JUMP JUMPDEST SWAP3 POP POP DUP2 SWAP1 SSTORE POP JUMPDEST POP POP POP JUMP JUMPDEST PUSH1 0x0 DUP1 PUSH1 0x0 SWAP1 POP PUSH1 0x0 JUMPDEST PUSH1 0x2 DUP1 SLOAD SWAP1 POP DUP2 LT ISZERO PUSH2 0x736 JUMPI DUP2 PUSH1 0x2 DUP3 DUP2 SLOAD DUP2 LT PUSH2 0x6DF JUMPI PUSH2 0x6DE PUSH2 0xBCB JUMP JUMPDEST JUMPDEST SWAP1 PUSH1 0x0 MSTORE PUSH1 0x20 PUSH1 0x0 KECCAK256 SWAP1 PUSH1 0x2 MUL ADD PUSH1 0x1 ADD SLOAD GT ISZERO PUSH2 0x723 JUMPI PUSH1 0x2 DUP2 DUP2 SLOAD DUP2 LT PUSH2 0x70B JUMPI PUSH2 0x70A PUSH2 0xBCB JUMP JUMPDEST JUMPDEST SWAP1 PUSH1 0x0 MSTORE PUSH1 0x20 PUSH1 0x0 KECCAK256 SWAP1 PUSH1 0x2 MUL ADD PUSH1 0x1 ADD SLOAD SWAP2 POP DUP1 SWAP3 POP JUMPDEST DUP1 DUP1 PUSH2 0x72E SWAP1 PUSH2 0xB53 JUMP JUMPDEST SWAP2 POP POP PUSH2 0x6BD JUMP JUMPDEST POP POP SWAP1 JUMP JUMPDEST PUSH1 0x1 PUSH1 0x20 MSTORE DUP1 PUSH1 0x0 MSTORE PUSH1 0x40 PUSH1 0x0 KECCAK256 PUSH1 0x0 SWAP2 POP SWAP1 POP DUP1 PUSH1 0x0 ADD SLOAD SWAP1 DUP1 PUSH1 0x1 ADD PUSH1 0x0 SWAP1 SLOAD SWAP1 PUSH2 0x100 EXP SWAP1 DIV PUSH1 0xFF AND SWAP1 DUP1 PUSH1 0x1 ADD PUSH1 0x1 SWAP1 SLOAD SWAP1 PUSH2 0x100 EXP SWAP1 DIV PUSH20 0xFFFFFFFFFFFFFFFFFFFFFFFFFFFFFFFFFFFFFFFF AND SWAP1 DUP1 PUSH1 0x2 ADD SLOAD SWAP1 POP DUP5 JUMP JUMPDEST PUSH1 0x0 PUSH1 0x2 PUSH2 0x7A4 PUSH2 0x6B3 JUMP JUMPDEST DUP2 SLOAD DUP2 LT PUSH2 0x7B5 JUMPI PUSH2 0x7B4 PUSH2 0xBCB JUMP JUMPDEST JUMPDEST SWAP1 PUSH1 0x0 MSTORE PUSH1 0x20 PUSH1 0x0 KECCAK256 SWAP1 PUSH1 0x2 MUL ADD PUSH1 0x0 ADD SLOAD SWAP1 POP SWAP1 JUMP JUMPDEST PUSH1 0x0 DUP2 CALLDATALOAD SWAP1 POP PUSH2 0x7DB DUP2 PUSH2 0xCCC JUMP JUMPDEST SWAP3 SWAP2 POP POP JUMP JUMPDEST PUSH1 0x0 DUP2 CALLDATALOAD SWAP1 POP PUSH2 0x7F0 DUP2 PUSH2 0xCE3 JUMP JUMPDEST SWAP3 SWAP2 POP POP JUMP JUMPDEST PUSH1 0x0 PUSH1 0x20 DUP3 DUP5 SUB SLT ISZERO PUSH2 0x80C JUMPI PUSH2 0x80B PUSH2 0xBFA JUMP JUMPDEST JUMPDEST PUSH1 0x0 PUSH2 0x81A DUP5 DUP3 DUP6 ADD PUSH2 0x7CC JUMP JUMPDEST SWAP2 POP POP SWAP3 SWAP2 POP POP JUMP JUMPDEST PUSH1 0x0 PUSH1 0x20 DUP3 DUP5 SUB SLT ISZERO PUSH2 0x839 JUMPI PUSH2 0x838 PUSH2 0xBFA JUMP JUMPDEST JUMPDEST PUSH1 0x0 PUSH2 0x847 DUP5 DUP3 DUP6 ADD PUSH2 0x7E1 JUMP JUMPDEST SWAP2 POP POP SWAP3 SWAP2 POP POP JUMP JUMPDEST PUSH2 0x859 DUP2 PUSH2 0xB01 JUMP JUMPDEST DUP3 MSTORE POP POP JUMP JUMPDEST PUSH2 0x868 DUP2 PUSH2 0xB13 JUMP JUMPDEST DUP3 MSTORE POP POP JUMP JUMPDEST PUSH2 0x877 DUP2 PUSH2 0xB1F JUMP JUMPDEST DUP3 MSTORE POP POP JUMP JUMPDEST PUSH1 0x0 PUSH2 0x88A PUSH1 0x14 DUP4 PUSH2 0xA9A JUMP JUMPDEST SWAP2 POP PUSH2 0x895 DUP3 PUSH2 0xBFF JUMP JUMPDEST PUSH1 0x20 DUP3 ADD SWAP1 POP SWAP2 SWAP1 POP JUMP JUMPDEST PUSH1 0x0 PUSH2 0x8AD PUSH1 0xE DUP4 PUSH2 0xA9A JUMP JUMPDEST SWAP2 POP PUSH2 0x8B8 DUP3 PUSH2 0xC28 JUMP JUMPDEST PUSH1 0x20 DUP3 ADD SWAP1 POP SWAP2 SWAP1 POP JUMP JUMPDEST PUSH1 0x0 PUSH2 0x8D0 PUSH1 0x12 DUP4 PUSH2 0xA9A JUMP JUMPDEST SWAP2 POP PUSH2 0x8DB DUP3 PUSH2 0xC51 JUMP JUMPDEST PUSH1 0x20 DUP3 ADD SWAP1 POP SWAP2 SWAP1 POP JUMP JUMPDEST PUSH1 0x0 PUSH2 0x8F3 PUSH1 0x19 DUP4 PUSH2 0xA9A JUMP JUMPDEST SWAP2 POP PUSH2 0x8FE DUP3 PUSH2 0xC7A JUMP JUMPDEST PUSH1 0x20 DUP3 ADD SWAP1 POP SWAP2 SWAP1 POP JUMP JUMPDEST PUSH1 0x0 PUSH2 0x916 PUSH1 0x1E DUP4 PUSH2 0xA9A JUMP JUMPDEST SWAP2 POP PUSH2 0x921 DUP3 PUSH2 0xCA3 JUMP JUMPDEST PUSH1 0x20 DUP3 ADD SWAP1 POP SWAP2 SWAP1 POP JUMP JUMPDEST PUSH2 0x935 DUP2 PUSH2 0xB49 JUMP JUMPDEST DUP3 MSTORE POP POP JUMP JUMPDEST PUSH1 0x0 PUSH1 0x20 DUP3 ADD SWAP1 POP PUSH2 0x950 PUSH1 0x0 DUP4 ADD DUP5 PUSH2 0x850 JUMP JUMPDEST SWAP3 SWAP2 POP POP JUMP JUMPDEST PUSH1 0x0 PUSH1 0x20 DUP3 ADD SWAP1 POP PUSH2 0x96B PUSH1 0x0 DUP4 ADD DUP5 PUSH2 0x86E JUMP JUMPDEST SWAP3 SWAP2 POP POP JUMP JUMPDEST PUSH1 0x0 PUSH1 0x40 DUP3 ADD SWAP1 POP PUSH2 0x986 PUSH1 0x0 DUP4 ADD DUP6 PUSH2 0x86E JUMP JUMPDEST PUSH2 0x993 PUSH1 0x20 DUP4 ADD DUP5 PUSH2 0x92C JUMP JUMPDEST SWAP4 SWAP3 POP POP POP JUMP JUMPDEST PUSH1 0x0 PUSH1 0x20 DUP3 ADD SWAP1 POP DUP2 DUP2 SUB PUSH1 0x0 DUP4 ADD MSTORE PUSH2 0x9B3 DUP2 PUSH2 0x87D JUMP JUMPDEST SWAP1 POP SWAP2 SWAP1 POP JUMP JUMPDEST PUSH1 0x0 PUSH1 0x20 DUP3 ADD SWAP1 POP DUP2 DUP2 SUB PUSH1 0x0 DUP4 ADD MSTORE PUSH2 0x9D3 DUP2 PUSH2 0x8A0 JUMP JUMPDEST SWAP1 POP SWAP2 SWAP1 POP JUMP JUMPDEST PUSH1 0x0 PUSH1 0x20 DUP3 ADD SWAP1 POP DUP2 DUP2 SUB PUSH1 0x0 DUP4 ADD MSTORE PUSH2 0x9F3 DUP2 PUSH2 0x8C3 JUMP JUMPDEST SWAP1 POP SWAP2 SWAP1 POP JUMP JUMPDEST PUSH1 0x0 PUSH1 0x20 DUP3 ADD SWAP1 POP DUP2 DUP2 SUB PUSH1 0x0 DUP4 ADD MSTORE PUSH2 0xA13 DUP2 PUSH2 0x8E6 JUMP JUMPDEST SWAP1 POP SWAP2 SWAP1 POP JUMP JUMPDEST PUSH1 0x0 PUSH1 0x20 DUP3 ADD SWAP1 POP DUP2 DUP2 SUB PUSH1 0x0 DUP4 ADD MSTORE PUSH2 0xA33 DUP2 PUSH2 0x909 JUMP JUMPDEST SWAP1 POP SWAP2 SWAP1 POP JUMP JUMPDEST PUSH1 0x0 PUSH1 0x20 DUP3 ADD SWAP1 POP PUSH2 0xA4F PUSH1 0x0 DUP4 ADD DUP5 PUSH2 0x92C JUMP JUMPDEST SWAP3 SWAP2 POP POP JUMP JUMPDEST PUSH1 0x0 PUSH1 0x80 DUP3 ADD SWAP1 POP PUSH2 0xA6A PUSH1 0x0 DUP4 ADD DUP8 PUSH2 0x92C JUMP JUMPDEST PUSH2 0xA77 PUSH1 0x20 DUP4 ADD DUP7 PUSH2 0x85F JUMP JUMPDEST PUSH2 0xA84 PUSH1 0x40 DUP4 ADD DUP6 PUSH2 0x850 JUMP JUMPDEST PUSH2 0xA91 PUSH1 0x60 DUP4 ADD DUP5 PUSH2 0x92C JUMP JUMPDEST SWAP6 SWAP5 POP POP POP POP POP JUMP JUMPDEST PUSH1 0x0 DUP3 DUP3 MSTORE PUSH1 0x20 DUP3 ADD SWAP1 POP SWAP3 SWAP2 POP POP JUMP JUMPDEST PUSH1 0x0 PUSH2 0xAB6 DUP3 PUSH2 0xB49 JUMP JUMPDEST SWAP2 POP PUSH2 0xAC1 DUP4 PUSH2 0xB49 JUMP JUMPDEST SWAP3 POP DUP3 PUSH32 0xFFFFFFFFFFFFFFFFFFFFFFFFFFFFFFFFFFFFFFFFFFFFFFFFFFFFFFFFFFFFFFFF SUB DUP3 GT ISZERO PUSH2 0xAF6 JUMPI PUSH2 0xAF5 PUSH2 0xB9C JUMP JUMPDEST JUMPDEST DUP3 DUP3 ADD SWAP1 POP SWAP3 SWAP2 POP POP JUMP JUMPDEST PUSH1 0x0 PUSH2 0xB0C DUP3 PUSH2 0xB29 JUMP JUMPDEST SWAP1 POP SWAP2 SWAP1 POP JUMP JUMPDEST PUSH1 0x0 DUP2 ISZERO ISZERO SWAP1 POP SWAP2 SWAP1 POP JUMP JUMPDEST PUSH1 0x0 DUP2 SWAP1 POP SWAP2 SWAP1 POP JUMP JUMPDEST PUSH1 0x0 PUSH20 0xFFFFFFFFFFFFFFFFFFFFFFFFFFFFFFFFFFFFFFFF DUP3 AND SWAP1 POP SWAP2 SWAP1 POP JUMP JUMPDEST PUSH1 0x0 DUP2 SWAP1 POP SWAP2 SWAP1 POP JUMP JUMPDEST PUSH1 0x0 PUSH2 0xB5E DUP3 PUSH2 0xB49 JUMP JUMPDEST SWAP2 POP PUSH32 0xFFFFFFFFFFFFFFFFFFFFFFFFFFFFFFFFFFFFFFFFFFFFFFFFFFFFFFFFFFFFFFFF DUP3 EQ ISZERO PUSH2 0xB91 JUMPI PUSH2 0xB90 PUSH2 0xB9C JUMP JUMPDEST JUMPDEST PUSH1 0x1 DUP3 ADD SWAP1 POP SWAP2 SWAP1 POP JUMP JUMPDEST PUSH32 0x4E487B7100000000000000000000000000000000000000000000000000000000 PUSH1 0x0 MSTORE PUSH1 0x11 PUSH1 0x4 MSTORE PUSH1 0x24 PUSH1 0x0 REVERT JUMPDEST PUSH32 0x4E487B7100000000000000000000000000000000000000000000000000000000 PUSH1 0x0 MSTORE PUSH1 0x32 PUSH1 0x4 MSTORE PUSH1 0x24 PUSH1 0x0 REVERT JUMPDEST PUSH1 0x0 DUP1 REVERT JUMPDEST PUSH32 0x486173206E6F20726967687420746F20766F7465000000000000000000000000 PUSH1 0x0 DUP3 ADD MSTORE POP JUMP JUMPDEST PUSH32 0x416C726561647920766F7465642E000000000000000000000000000000000000 PUSH1 0x0 DUP3 ADD MSTORE POP JUMP JUMPDEST PUSH32 0x596F7520616C726561647920766F7465642E0000000000000000000000000000 PUSH1 0x0 DUP3 ADD MSTORE POP JUMP JUMPDEST PUSH32 0x466F756E64206C6F6F7020696E2064656C65676174696F6E2E00000000000000 PUSH1 0x0 DUP3 ADD MSTORE POP JUMP JUMPDEST PUSH32 0x53656C662D64656C65676174696F6E20697320646973616C6C6F7765642E0000 PUSH1 0x0 DUP3 ADD MSTORE POP JUMP JUMPDEST PUSH2 0xCD5 DUP2 PUSH2 0xB01 JUMP JUMPDEST DUP2 EQ PUSH2 0xCE0 JUMPI PUSH1 0x0 DUP1 REVERT JUMPDEST POP JUMP JUMPDEST PUSH2 0xCEC DUP2 PUSH2 0xB49 JUMP JUMPDEST DUP2 EQ PUSH2 0xCF7 JUMPI PUSH1 0x0 DUP1 REVERT JUMPDEST POP JUMP INVALID LOG2 PUSH5 0x6970667358 0x22 SLT KECCAK256 0xD4 0x1E 0xC2 0xB0 0x1F EXTCODEHASH BASEFEE SWAP4 0xAB DIFFICULTY 0xBC 0x4E SAR PUSH4 0xFE4767FE PUSH11 0x904615B4A12F779804D6CA 0xE2 PUSH16 0x64736F6C634300080700330000000000 "
				},
				"gasEstimates": {
					"creation": {
						"codeDepositCost": "675200",
						"executionCost": "708",
						"totalCost": "675908"
					},
					"external": {
						"chairperson()": "2556",
						"delegate(address)": "infinite",
						"proposals(uint256)": "infinite",
						"vote(uint256)": "infinite",
						"voters(address)": "infinite",
						"winnerName()": "infinite",
						"winningProposal()": "infinite"
					}
				},
				"methodIdentifiers": {
					"chairperson()": "2e4176cf",
					"delegate(address)": "5c19a95c",
					"proposals(uint256)": "013cf08b",
					"vote(uint256)": "0121b93f",
					"voters(address)": "a3ec138d",
					"winnerName()": "e2ba53f0",
					"winningProposal()": "609ff1bd"
				}
			},
			"storageLayout": {
				"storage": [
					{
						"astId": 18,
						"contract": "contracts/3_Ballot.sol:Ballot",
						"label": "chairperson",
						"offset": 0,
						"slot": "0",
						"type": "t_address"
					},
					{
						"astId": 23,
						"contract": "contracts/3_Ballot.sol:Ballot",
						"label": "voters",
						"offset": 0,
						"slot": "1",
						"type": "t_mapping(t_address,t_struct(Voter)11_storage)"
					},
					{
						"astId": 27,
						"contract": "contracts/3_Ballot.sol:Ballot",
						"label": "proposals",
						"offset": 0,
						"slot": "2",
						"type": "t_array(t_struct(Proposal)16_storage)dyn_storage"
					}
				],
				"types": {
					"t_address": {
						"encoding": "inplace",
						"label": "address",
						"numberOfBytes": "20"
					},
					"t_array(t_struct(Proposal)16_storage)dyn_storage": {
						"base": "t_struct(Proposal)16_storage",
						"encoding": "dynamic_array",
						"label": "struct Ballot.Proposal[]",
						"numberOfBytes": "32"
					},
					"t_bool": {
						"encoding": "inplace",
						"label": "bool",
						"numberOfBytes": "1"
					},
					"t_bytes32": {
						"encoding": "inplace",
						"label": "bytes32",
						"numberOfBytes": "32"
					},
					"t_mapping(t_address,t_struct(Voter)11_storage)": {
						"encoding": "mapping",
						"key": "t_address",
						"label": "mapping(address => struct Ballot.Voter)",
						"numberOfBytes": "32",
						"value": "t_struct(Voter)11_storage"
					},
					"t_struct(Proposal)16_storage": {
						"encoding": "inplace",
						"label": "struct Ballot.Proposal",
						"members": [
							{
								"astId": 13,
								"contract": "contracts/3_Ballot.sol:Ballot",
								"label": "name",
								"offset": 0,
								"slot": "0",
								"type": "t_bytes32"
							},
							{
								"astId": 15,
								"contract": "contracts/3_Ballot.sol:Ballot",
								"label": "voteCount",
								"offset": 0,
								"slot": "1",
								"type": "t_uint256"
							}
						],
						"numberOfBytes": "64"
					},
					"t_struct(Voter)11_storage": {
						"encoding": "inplace",
						"label": "struct Ballot.Voter",
						"members": [
							{
								"astId": 4,
								"contract": "contracts/3_Ballot.sol:Ballot",
								"label": "weight",
								"offset": 0,
								"slot": "0",
								"type": "t_uint256"
							},
							{
								"astId": 6,
								"contract": "contracts/3_Ballot.sol:Ballot",
								"label": "voted",
								"offset": 0,
								"slot": "1",
								"type": "t_bool"
							},
							{
								"astId": 8,
								"contract": "contracts/3_Ballot.sol:Ballot",
								"label": "delegate",
								"offset": 1,
								"slot": "1",
								"type": "t_address"
							},
							{
								"astId": 10,
								"contract": "contracts/3_Ballot.sol:Ballot",
								"label": "vote",
								"offset": 0,
								"slot": "2",
								"type": "t_uint256"
							}
						],
						"numberOfBytes": "96"
					},
					"t_uint256": {
						"encoding": "inplace",
						"label": "uint256",
						"numberOfBytes": "32"
					}
				}
			},
			"userdoc": {
				"kind": "user",
				"methods": {},
				"version": 1
			}
		}
	}
}